:020000040000FA
:1000000002003B02DA3F320000000002DA42320016
:1000100000000002C7AE320000000002DA453200E4
:1000200000000002DA48320000000002DA4B320021
:1000300000000002D7643200000000758F8078FF56
:10004000E4F6D8FD9000007F467E05EF7003EE6079
:10005000080EE4F0A3DFFCDEFA90CE857E00E49388
:100060006065A3FF543F30E511EFFEE493A3FFEE7C
:10007000547F30E638541FFE8009EF547F30E6335A
:10008000541FFFEF60010EE493FAA3E493F8E4A396
:10009000E493A3FBC8C582C8CAC583CAEBF0A3C852
:1000A000C582C8CAC583CADFE7DEE580B1EE541F4A
:1000B000FE8004EF541FFF0EE493F8A3E493A3F62D
:1000C00008DFF9DEF7809775812102D9DF90054BB3
:1000D00012789E1275FF243A70030209C824266024
:1000E000030211A390054B12789590000112761827
:1000F00012799F11AB00086104050220059C2406BB
:100100005F2606D92807532C08B532081B4408D5AA
:100110008808AEA20130A4020FB00274B20411C06C
:100120000313D60380DC01ABF209BEFA000009C557
:1001300090055174A4F0900004127618900552F0C6
:10014000900003127618FF9000021276184F705834
:10015000900552E0FD640260030210BA90054B1254
:100160007895E92405F9E43AFA90057312789EE44B
:10017000900576F0A3F0EDFFA3E4F0A3EFF07B0190
:100180007A05798312CFD87B017A0579839005525D
:10019000E0FD12D21512889D90054EEEF0A3EFF00F
:1001A000E49004FDF0020E2E02111D90055174F230
:1001B000F090054B12789590000412761890055235
:1001C000F0900003127618FF9000021276184F602C
:1001D000030209B21293EB9004FDEFF0900552E098
:1001E000FED39F401690079D127895EEFD7C00127D
:1001F000D8099004FDE0FF7467FE22900552E0905C
:1002000004FDF090054E7490F0A3E4F002112A90E2
:10021000055174B0F090054B127895900004127659
:1002200018900552F0900002127618FE900003120A
:100230007618FDEDFF900553EEF0A3EFF090055218
:10024000E0FD7C0090079D127895129AD590054E9E
:10025000EEF0A3EFF0900552E0FD9004FDF0EF709A
:1002600003EE6490600B90079D1278957C0012D885
:100270000902112A90055174B2F090054B1278953D
:10028000900004127618900552F090000312761830
:1002900024FD60171460242402704E90079D12788C
:1002A00095900552E0FD12444D803490079D1278E0
:1002B00095900552E0FD124B26802490054B127854
:1002C0009590000212761824FFFFE434FFFE900799
:1002D0009D127895900552E090055AF0123D2790B6
:1002E000054EEEF0A3EFF080030209B2900552E054
:1002F000FF9004FDF090054EE0FCA3E07003EC6479
:1003000090600D90079D127895EFFD7C0012D80942
:1003100002112A90055174D6F090054B12789590F1
:100320000004127618900552F0900002127618FE22
:10033000900003127618FDEDFF900553EEF0A3EF49
:10034000F0900552E0FD7C0090079D127895E9241D
:1003500005F9E43AFA127F6390054EEEF0A3EFF050
:10036000E49004FDF0EF7003EE6490601090079D40
:10037000127895900552E0FD7C0012D80902112AEE
:1003800090055174DCF090054B12789590000412A2
:100390007618900552F090000312761824FD601E26
:1003A00014603224027060900552E0FF90079D12A5
:1003B0007895E92405F9E43AFA121C9C803F9005EF
:1003C00052E0FF90079D127895E92405F9E43AFA86
:1003D00012325D802890054B1278959000021276BB
:1003E0001824FFFFE434FFFE900552E0FD90079DC6
:1003F000127895E92405F9E43AFA1211AC90054E09
:10040000EEF0A3EFF080030209B2E49004FD020EC7
:100410003590054B1278959000041276189005528D
:10042000F0900551E024CE607C24AA603524E6706B
:10043000030204E824FE60030204F090079D127892
:1004400095900552E0FD7C0012D8091293EB9004C0
:10045000FDEFF090055174C0F0A3E09004FDF002B0
:1004600011957B017A05791F90057312789EE490AF
:100470000576F0A3F09005B5E0FF900578E4F0A3D1
:10048000EFF090079D12789512CFD89005B5E0FF58
:100490009004FDF090055174C0F0EF7E6FB40C0233
:1004A0007E907F00227B017A05791F900573127878
:1004B0009EE4900576F0A3F09005B5E0FF900578F6
:1004C000E4F0A3EFF090079D12789512CFD8900535
:1004D000B5E0FF9004FDF090055174C0F0EF7E6F21
:1004E000B406027E907F00229005B5E07011800076
:1004F00090055174C0F0E49004FDF07E6FFF22027D
:10050000112A9005517420F0E49004FDF090054B01
:1005100012789590000412761864086003020F9F09
:10052000900002127618707190000312761824FE63
:10053000602F047061E92405F9E43AFA7F0112BAE8
:10054000247E0090054EEEF0A3EFF06404700302E9
:100550000BAA90054EE0FEA3E064804E7035020BBE
:10056000BB90054B127895E92405F9E43AFA7F022D
:1005700012BA247E0090054EEEF0A3EFF0640470F2
:1005800003020BAA90054EE0FEA3E064804E7003C8
:10059000020BBB02108D02111D02111D900551743A
:1005A00024F0E49004FDF090054B1278959000043F
:1005B00012761864106003020BC8900002127618BD
:1005C000600302065C90000312761824FE60450466
:1005D0006003020659E92405F9E43AFAC003C002AF
:1005E000C00190054B127895E9240DF9E43AFA9090
:1005F000055912789ED001D002D0037F0112B4A316
:100600007E0090054EEEF0A3EFF064407003020808
:100610000A02119590054B127895E92405F9E43A00
:10062000FAC003C002C00190054B127895E9240D71
:10063000F9E43AFA90055912789ED001D002D0031D
:100640007F0212B4A37E0090054EEEF0A3EFF0649B
:1006500040700302080A02119502111D02111D903B
:1006600005517426F0E49004FDF090054B12789546
:100670009000041276186408705C900002127618DC
:1006800070519000031276181470457F0112D10545
:1006900090054EE4F0A3EFF090054B127895E92415
:1006A00005F9E43AFA7F0112B780900550EFF0BFE8
:1006B000400302080A900550E0FF7E0090054EE0DE
:1006C000FCA3E0B50707EEB5040302108D021195F7
:1006D00002111D02111D020F9F9005517428F0E4B4
:1006E0009004FDF090054B12789590000412761856
:1006F0006408705C9000021276187051900003122A
:1007000076181470457F0112D10590054EE4F0A3D0
:10071000EFF090054B127895E92405F9E43AFA7F59
:100720000112B8D3900550EFF0BF400302080A90C1
:100730000550E0FF7E0090054EE0FCA3E0B5070702
:10074000EEB5040302108D02119502111D02111D58
:10075000020F9F900551742CF0E49004FDF0900579
:100760004B1278959000041276186410600302080A
:100770001890000212761860030208159000031208
:10078000761824FE604524026003020812E9240D55
:10079000F9E43AFAC003C002C00190054B12789503
:1007A000E92405F9E43AFA90055912789ED001D06F
:1007B00002D0037F0112B3267E0090054EEEF0A317
:1007C000EFF064207002804202119590054B127880
:1007D00095E9240DF9E43AFAC003C002C00190057E
:1007E0004B127895E92405F9E43AFA900559127804
:1007F0009ED001D002D0037F0212B3267E00900566
:100800004EEEF0A3EFF0642070057E987F04220284
:10081000119502111D02111D020BC890055174445F
:10082000F090054B127895900004127618900552BE
:10083000F0900003127618FF9000021276184F70A5
:100840001A900552E06002804412BFF190054EEE0E
:10085000F0A3EFF0E49004FDF0800302111D0211FB
:100860002A9005517404F090054B1278959000047D
:10087000127618900552F0900003127618FF90003F
:10088000021276184F7021900552E06009E490043E
:10089000FDF07E67FF2212C20790054EEEF0A3EF37
:1008A000F0E49004FDF0800302111D02112A90056E
:1008B0005174A2F0229005517432F0E49004FDF0DE
:1008C00090054E7490F0A3E4F09005B5F09004FD0F
:1008D000F0FF7E90229005517488F090054B1278BD
:1008E00095900004127618900552F090000312764D
:1008F00018FF9000021276184F60030209B29005AB
:1009000052E06410600AE49004FDF07E947F0222BD
:1009100090079D127895E92405F9E43AFA90057359
:1009200012789EE4900576F0A3F0A3F0A37410F083
:100930007B017A05798312CFD87F007E3F129054D5
:100940007FE17E2F12905490054EEEF0A3EFF064FD
:10095000047003EE649460467B017A0579937D1000
:100960007C00E4FFFE129E287B017A0579939005B6
:100970005812789E90079D12789590055B12789E8C
:100980007B017A057983127A399005B5EFF0E4900E
:1009900004FDF0749F90054EF0A3EFF0801DE490ED
:1009A00004FDF09005B5F090054E746FF0A3E4F0EF
:1009B0008009E49004FDF07E6BFF2202112A90056D
:1009C0005174FAF02202119A90054B12789590001A
:1009D0000112761812799F0A05200AB9240CA8C0C2
:1009E0000D17C10E39C20F56C31075CD0BCDF00CCB
:1009F00088F21195F41133F60C4EF70C6BF80C33AA
:100A0000FD0000119AE49004FDF0900004127618A5
:100A100064086003020AB690054B127895900002B4
:100A20001276186003020AB390000312761824FAB3
:100A300060332402707AE92405F9E43AFA7F04125B
:100A4000BA247E0090054EEEF0A3EFF0640470032C
:100A5000020BAA90054EE0FEA3E064804E700302F4
:100A60000BBB02108D7F0412D1057E0090054EEE67
:100A7000F0A3EFF06480600302108D90054B1278B4
:100A800095E92405F9E43AFA7F0612BA247E00902B
:100A9000054EEEF0A3EFF064047003020BAA90057C
:100AA0004EE0FEA3E064804E7003020BBB02108D8B
:100AB00002111D02111D020BC8E49004FDF0900507
:100AC0004B12789590000412761864106003020BA4
:100AD000C89000021276186003020BC59000031242
:100AE000761824FA606F24026003020BC27F04129E
:100AF000D1057E0090054EEEF0A3EFF06480600318
:100B000002108D90054B127895E92405F9E43AFA24
:100B1000C003C002C00190054B127895E9240DF97D
:100B2000E43AFA90055912789ED001D002D0037FA2
:100B30000412B4A37E0090054EEEF0A3EFF064041F
:100B40007002806690054EE0FEA3E064804E700265
:100B5000806902108D7F0612D1057E0090054EEE51
:100B6000F0A3EFF06480600302108D90054B1278C3
:100B700095E92405F9E43AFAC003C002C0019005E2
:100B80004B127895E9240DF9E43AFA900559127858
:100B90009ED001D002D0037F0612B4A37E00900540
:100BA0004EEEF0A3EFF0640470057E987F40229033
:100BB000054EE0FEA3E064804E70047E90FF2202AA
:100BC000108D02111D02111D7E677F1022E490041A
:100BD000FDF07F0612D1057E0090054EEEF0A3EFEA
:100BE000F06480600302108D90054B1278959000A0
:100BF0000212761824FE6010146013146016240389
:100C0000701D7D007C2080107D007C40800A7D006E
:100C10007C80800474FFFDFC7F2012A3F780030218
:100C2000111D12D873EF64034E70057E927F40222F
:100C3000021195E49004FDF07F0612D1057E00902C
:100C4000054EEEF0A3EFF06480605802108DE49042
:100C500004FDF07F0612D1057E0090054EEEF0A354
:100C6000EFF06480600302108D8038E49004FDF0A2
:100C70007F0612D1057E0090054EEEF0A3EFF064E2
:100C800080600302108D801BE49004FDF07F06124B
:100C9000D1057E0090054EEEF0A3EFF06480600376
:100CA00002108D7E6D7F0022E49004FDF07F04121F
:100CB000D1057E0090054EEEF0A3EFF06480600356
:100CC00002108D90054B12789590000412761890C2
:100CD0000552F0900003127618FF90000212761869
:100CE0004F702E900552E0FD640260030210BA902E
:100CF000054B127895E92405F9E43AFA12D2151257
:100D0000A12A90054EEEF0A3EFF0E49004FDF080F0
:100D10000302111D02112AE49004FDF07F0412D198
:100D2000057E0090054EEEF0A3EFF06480600302B4
:100D3000108D90054B12789590000412761890054E
:100D400052F0900003127618FF9000021276184FAE
:100D50006003020E2B900552E06407600AE49004E1
:100D6000FDF07E677F072290054B127895E92405F8
:100D7000F9E43AFA7D0212D215C006C00790054B7D
:100D8000127895E9240AF9E43AFA7D0212D2159014
:100D9000055FEEF0A3EFF090054B127895900007F9
:100DA000127618FF540FFDC005EF7804A2E713D8A0
:100DB000FB540FFBC00390054B127895900008126E
:100DC0007618540F900559F0900009127618FF54C8
:100DD0000F90055AF0EF7804A2E713D8FB540F9058
:100DE000055BF0E92405F9E43AFAA312789ED003F2
:100DF000D005D007D006126A5490054EEEF0A3EF4E
:100E0000F090054B127895E92405F9E43AFA7D0251
:100E100012D21512889D90054EEEF0A3EFF09005CA
:100E20005174A4F0E49004FDF0800302111D9005BC
:100E30004FE09005B5F002112AE49004FDF07F0424
:100E400012D1057E0090054EEEF0A3EFF0648060B5
:100E50000302108D90054B127895900003127618BE
:100E6000FF9000021276184F6003020F4890054B66
:100E700012789590000412761864086008E49004D3
:100E8000FDF0020F9F90054B127895E92405F9E4D7
:100E90003AFA7D0212D215C006C00790054B1278AF
:100EA00095E9240AF9E43AFA7D0212D21590055C1C
:100EB000EEF0A3EFF090054B1278959000071276B4
:100EC00018FF540FFDC005EF7804A2E713D8FB54B8
:100ED0000FFBC00390054B1278959000081276180E
:100EE000540F900559F0900009127618FF540F9096
:100EF000055AF0EF7804A2E713D8FB540F90055B76
:100F0000F090000C12761890055EF0D003D005D05A
:100F100007D0061251F590054EEEF0A3EFF09005C4
:100F20004B127895E92405F9E43AFA7D0212D215BC
:100F300012889D90054EEEF0A3EFF090055174A439
:100F4000F0E49004FDF0800302111D90054FE09045
:100F500005B5F002112AE49004FDF07F0412D105DA
:100F60007E0090054EEEF0A3EFF064806003021067
:100F70008D90054B127895900003127618FF900023
:100F8000021276184F600302106790054B12789595
:100F90009000041276186408600AE49004FDF07E64
:100FA000677F082290054B127895E92405F9E43A09
:100FB000FA7D0212D215C006C00790054B12789533
:100FC000E9240AF9E43AFA7D0212D21590055CEEA2
:100FD000F0A3EFF090054B12789590000712761869
:100FE000FF540FFDC005EF7804A2E713D8FB540FA0
:100FF000FBC00390054B12789590000812761854A8
:101000000F900559F0900009127618FF540F9005C3
:101010005AF0EF7804A2E713D8FB540F90055BF069
:1010200090000C12761890055EF0D003D005D00722
:10103000D00612588690054EEEF0A3EFF090054BC7
:10104000127895E92405F9E43AFA7D0212D21512D4
:10105000889D90054EEEF0A3EFF090055174A4F03A
:10106000E49004FDF0800302111D90054FE090050F
:10107000B5F002112AE49004FDF07F0412D1057E40
:101080000090054EEEF0A3EFF0648060057E987F3F
:10109000082290054B12789590000412761890055E
:1010A00052F0900003127618FF9000021276184F4B
:1010B000706B900552E06402600AE49004FDF07EDB
:1010C000677F022290054B127895E92405F9E43AEE
:1010D000FA7D0212D21590054B127895E92405F994
:1010E000E43AFAE490055AF01264B090054EEEF03E
:1010F000A3EFF090054B127895E92405F9E43AFA4C
:101100007D0212D21512889D90054EEEF0A3EFF0ED
:1011100090055174A4F0E49004FDF080057E6B7F8F
:10112000002290054FE09005B5F090054EE0FEA33B
:10113000E0FF2290055174F6F090054B12789590DF
:101140000002127618FE900003127618FDEDFF9053
:101150000553EEF0A3EFF012DA29E4900552F09077
:10116000054B127895900004127618FF900552E016
:10117000FEC39F501EE92405F9E43AFAEE7E0029E9
:10118000F9EE3AFA1275FFFF12DA39900552E004CF
:10119000F080CC80007E907F0022E49004FDF07E01
:1011A0006DFF22E49004FDF07E6EFF22900555EE67
:1011B000F0EF12D0AA90051212789E9000011277DB
:1011C00075FFAEF09004D9EEF0A3EFF0900501EEBC
:1011D000F0A3EFF090001C127775FF9004F6E5F095
:1011E000F0A3EFF0E49004ECF0A3F090050EF09083
:1011F00004FA12789E9005121278951275FF640415
:10120000600CAE02AF0112CE117E947F00229005D9
:101210001212789590000512761864016003021688
:10122000F290000A127618FD7C009000011277758A
:10123000FFAEF01276BE900555E0FCA3E0FDC39F23
:10124000EC9E40030217FE900505ECF0A3EDF09034
:10125000051212789590000A127618FF7E0090050C
:1012600005E0FCA3E0FD1276AC9004DDEEF0A3EF08
:10127000F0900007127618540F90050AF0E0FF2452
:10128000A5F582E43405F583E06480602012D10581
:101290007E009004E5EEF0A3EFF0EE7010EF24FC7A
:1012A000600824F46004240F700302179490051260
:1012B00012789590000612761870030217B4900504
:1012C0001212789590000A127618FF900557E06F79
:1012D00060030217D49005121278959000011277DE
:1012E00075FFD39004DEE09F9004DDE095F04003AD
:1012F000021804900512127895900008127618547E
:10130000F064F06032900001127775FF900557E0AD
:10131000FD9004DEE02DFD9004DDE03400FCD3ED13
:101320009FEC95F0404A900512127895900001ECE0
:101330008DF01277CC8039900512127895900001CB
:10134000127775FF900557E0FD9004DEE02DFD90CB
:1013500004DDE03400FCD3ED9FEC95F040129005E5
:1013600012127895AE02AF0112CE117E677F002275
:1013700090051212789590001C12777545F0704315
:1013800012BB6F90051212789590001CEE8FF01230
:1013900077CC90001C127775FDACF0BCFF06BDFF4A
:1013A00003021866AF05AE047D0112BCA6900512BB
:1013B00012789590001C127775FF9004F6E5F0F016
:1013C000A3EFF09004FA12789590050B12789E7DA9
:1013D0001E7C0012D96A90050B12789590001EEEC3
:1013E0008FF01277CC9004DBE0FEA3E07805C333E6
:1013F000CE33CED8F92400FFEE3402FE9004FA1268
:101400007895AC02AD017B207A0012C416900512CB
:10141000127895AE02AF0112CE119004F6E0700280
:10142000A3E0707112BB6F9004F6EEF0A3EFF0BE74
:10143000FF06BFFF030218669004F6E0FEA3E0FF7C
:101440007D0112BCA6804E9004F612D0B690050B1A
:1014500012789E9004EDE0241CFF9004ECE0340030
:10146000FED39004DEE09F9004DDE09E40449005B2
:101470000B12789590001C127775FF9004F6E5F03A
:10148000F0A3EFF09004ECE475F01C127749AE0283
:10149000AF0112CE119004ECE0FEA3E0FFC3900474
:1014A000DEE09FFF9004DDE09E9004D9F0A3EFF012
:1014B00080959004EDE0241CFF9004ECE03400FEE5
:1014C0009004DDE0FCA3E0FDC3EF9DFFEE9CFE90E9
:1014D0000557E0FDC3EF9DEE940040030215FD901B
:1014E000050B1278959004FA12789E90050B1278ED
:1014F000959004D9E0FEA3E0FF29F9EA3EFAC00383
:10150000C002C00190055812789590050EE07C004D
:1015100029F9EC3AFA90057312789EE4900576F07A
:10152000A3F0C3741C9F900579F0E49E900578F0B9
:10153000D001D002D00312CFD890050EE02FF0904A
:10154000050B12789590001C12777545F0702D12DE
:10155000BB6F90050B12789590001CEE8FF0127700
:10156000CC90001C127775FDACF0BCFF06BDFF03EC
:10157000021866AF05AE047D0112BCA69004FA12F3
:10158000789590050B12789E90050B1278957D1E2C
:101590007C0012D96A90050B12789590001EEE8F90
:1015A000F01277CC9004F6E0FEA3E07805C333CECA
:1015B00033CED8F92400FFEE3402FE9004FA1278FC
:1015C00095AC02AD017B207A0012C41690050B1277
:1015D000789590001C127775FF9004F6E5F0F0A363
:1015E000EFF09004ECE475F01C127749AE02AF0105
:1015F00012CE11E49004D9F0A3F002144790050B29
:101600001278959004FA12789E90050B12789590B6
:1016100004D9E0FEA3E029F9EA3EFAC003C002C003
:101620000190055812789590050EE0FF7E0029F98B
:10163000EE3AFA90057312789EE4900576F0A3F0E6
:10164000900557E0C39FFFE49E900578F0A3EFF06C
:10165000D001D002D00312CFD890050EE02FF09029
:101660000557E0FF9004DEE02FFF9004DDE034003A
:10167000FEC3900502E09F900501E09E500F90058B
:101680000B12789590001CE4F5F01277CC90050BC6
:101690001278957D1E7C0012D96A90050B12789500
:1016A00090001EEE8FF01277CC9004F6E0FEA3E0DF
:1016B0007805C333CE33CED8F92400FFEE3402FED2
:1016C0009004FA127895AC02AD017B207A0012C426
:1016D0001690050B127895AE02AF0112CE1190054F
:1016E00055E0FFA3E0900505CFF0A3EFF07E907FDB
:1016F0000022900512127895900005127618640366
:101700006003021C8A90051212789590000A1276E6
:1017100018FD7C00900001127775FFAEF01276BEC6
:101720009004F4EEF0A3EFF090051212789590007B
:101730000A12761875F01C840475F01CA4FFAEF034
:101740009004F0EEF0A3EFF0900555E0FCA3E0FD6F
:101750001276AC9004DDEEF0A3EFF0900007127665
:1017600018540F90050AF0E0FF24A5F582E4340533
:10177000F583E06480602F12D1057E009004E5EED1
:10178000F0A3EFF0EE701FEF24FC600824F4600477
:10179000240F7012900512127895AE02AF0112CE8E
:1017A000117E987F042290051212789590000612FF
:1017B0007618700CAE02AF0112CE117E987F102207
:1017C00090051212789590000A127618FF9005572E
:1017D000E06F601590050EEFF0AE02AF0112CE1172
:1017E00090050EE0FF7467FE229004F4E0FEA3E093
:1017F000FFD3900556E09F900555E09E401290055E
:1018000012127895AE02AF0112CE117E947F0222A1
:10181000900555E0FEA3E0FF9004F4E0FCA3E0FD9A
:101820001276BE900555ECF0A3EDF09005121278FB
:101830009590001C127775FFAEF09004DFEEF0A3D8
:10184000EFF04E704512BB6F900512127895900024
:101850001CEE8FF01277CC90001C127775FDACF067
:10186000BCFF08BDFF057E987F5022AF05AE047D0A
:101870000112BCA690051212789590001C12777583
:10188000FF9004F6E5F0F0A3EFF09004FA127895DB
:1018900090050B12789E7D1E7C0012D96A90050B74
:1018A00012789590001EEE8FF01277CC9004DBE05A
:1018B000FEA3E07805C333CE33CED8F92400FFEE83
:1018C0003402FE9004FA127895AC02AD017B207AC6
:1018D0000012C416900512127895AE02AF0112CE16
:1018E000119004ECE0FEA3E0FFC39004DEE09FFF54
:1018F0009004DDE09E9004D9F0A3EFF0E49004E7BB
:10190000F0A3F09004F6E0FFA3E0900503CFF0A36E
:10191000EFF074FFA3021A97900505E475F0011229
:1019200077499004F612D0B690050B12789E900479
:10193000ECE0FEA3E0FFD39004DEE09F9004DDE046
:101940009E405D9004F6E0FFA3E09004E3CFF0A397
:10195000EFF090050B12789590001C127775FFAE92
:10196000F09004F6EEF0A3EFF0900503EEF0A3EF95
:10197000F09004ECE475F01C127749AE02AF01124E
:10198000CE119004ECE0FEA3E0FFC39004DEE09FE4
:10199000FF9004DDE09E9004D9F0A3EFF002191847
:1019A000900555E0FEA3E0FF7C007D1C1276ACA301
:1019B000E02FFFEC3EFE9004EDE0241CFD9004ECD3
:1019C000E03400FCC3ED9FEC9E4003021A9D90059D
:1019D0000B1278959004FA12789E90050B12789568
:1019E0009004D9E0FEA3E0FF29F9EA3EFAC003C063
:1019F00002C00190055812789590050EE07C0029F0
:101A0000F9EC3AFA90057312789EE4900576F0A30B
:101A1000F0C3741C9F900579F0E49E900578F0D097
:101A200001D002D00312CFD890050B1278957D1EFD
:101A30007C0012D96A90050B12789590001EEE8FEB
:101A4000F01277CC9004F6E0FEA3E07805C333CE25
:101A500033CED8F92400FFEE3402FE9004FA127857
:101A600095AC02AD017B207A0012C4169004ECE420
:101A700075F01C12774990050B12789590001C1296
:101A80007775FF9004F6E5F0F0A3EFF0AE02AF013A
:101A900012CE11E49004D9F0A3F002191890050BAE
:101AA0001278959004FA12789E90050B1278959012
:101AB00004D9E0FEA3E029F9EA3EFAC003C002C05F
:101AC0000190055812789590050EE0FF7E0029F9E7
:101AD000EE3AFA90057312789EE4900576F0A3F042
:101AE000900557E0C39FFFE49E900578F0A3EFF0C8
:101AF000D001D002D00312CFD890050EE02FF09085
:101B0000050B12789590001C127775FF9004E7E59D
:101B1000F0F0A3EFF09004DFE0FFA3E090001CCF13
:101B20008FF01277CC9004FA12789E90050B127801
:101B3000957D1E7C0012D96A90050B127895900055
:101B40001EEE8FF01277CC9004F6E0FEA3E078054D
:101B5000C333CE33CED8F92400FFEE3402FE900416
:101B6000FA127895AC02AD017B207A0012C416906F
:101B7000050B127895AE02AF0112CE1112D0B390C0
:101B8000051212789E9005121278959004FA127838
:101B90009E90051212789590050B12789E90050381
:101BA000E0FEA3E0FF90051212789590001CEE8FE6
:101BB000F01277CC90050B1278957D1E7C0012D91F
:101BC0006A90050B12789590001EEE8FF01277CC7C
:101BD0009004DBE0FEA3E07805C333CE33CED8F922
:101BE0002400FFEE3402FE9004FA127895AC02ADA8
:101BF000017B207A0012C41690050B127895AE0274
:101C0000AF0112CE119004E312D0B690050B1278FA
:101C10009E90050B1278959004FA12789E9004E736
:101C2000E0FEA3E0FF90050B12789590001CEE8F6C
:101C3000F01277CC7D1E7C0012D96A90050B1278C9
:101C40009590001EEE8FF01277CC9004E3E0FEA397
:101C5000E07805C333CE33CED8F92400FFEE34024A
:101C6000FE9004FA127895AC02AD017B207A001246
:101C7000C41690050B127895AE02AF0112CE11E496
:101C8000900505F0A3F07E90FF2290051212789542
:101C9000AE02AF0112CE117E697F8122900555EF11
:101CA00012D0AE90051212789E900001127775FF47
:101CB000AEF09004D9EEF0A3EFF0900501EEF0A3A2
:101CC000EFF090001C127775FF9004F6E5F0F0A39A
:101CD000EFF0E49004ECF0A3F090050EF09004FA1D
:101CE00012789E9005121278951275FF6404600CAC
:101CF000AE02AF0112CE117E947F00229005121227
:101D00007895900005127618640160030221A29074
:101D1000000A127618FD7C00900505E475F00112AA
:101D20007749AFF0FE1276AC9004DDEEF0A3EFF051
:101D3000900007127618540F90050AF0E0FF24A5D2
:101D4000F582E43405F583E06480602012D1057EDD
:101D5000009004E5EEF0A3EFF0EE7010EF24FC60CD
:101D60000824F46004240F700302227B90051212F1
:101D70007895900006127618700302229B90051247
:101D800012789590000A127618FF900555E06F6062
:101D9000030222BB9005121278959000011277750C
:101DA000FFD39004DEE09F9004DDE095F040030255
:101DB00022EB90051212789590000812761854F0D4
:101DC00064F06032900001127775FF900555E0FDD8
:101DD0009004DEE02DFD9004DDE03400FCD3ED9FA7
:101DE000EC95F0404A900512127895900001EC8D28
:101DF000F01277CC8039900512127895900001127C
:101E00007775FF900555E0FD9004DEE02DFD900410
:101E1000DDE03400FCD3ED9FEC95F040129005120C
:101E2000127895AE02AF0112CE117E677F0022902C
:101E3000051212789590001C12777545F0704312C8
:101E4000BB6F90051212789590001CEE8FF0127700
:101E5000CC90001C127775FDACF0BCFF06BDFF03F3
:101E600002234DAF05AE047D0112BCA690051212EF
:101E7000789590001C127775FF9004F6E5F0F0A3BA
:101E8000EFF09004FA12789590050B12789E7D1E63
:101E90007C0012D96A90050B12789590001EEE8F87
:101EA000F01277CC9004DBE0FEA3E07805C333CEDC
:101EB00033CED8F92400FFEE3402FE9004FA1278F3
:101EC00095AC02AD017B207A0012C4169005121267
:101ED0007895AE02AF0112CE119004F6E07002A325
:101EE000E0707112BB6F9004F6EEF0A3EFF0BEFF4E
:101EF00006BFFF0302234D9004F6E0FEA3E0FF7D42
:101F00000112BCA6804E9004F612D0B690050B12BA
:101F1000789E9004EDE0241CFF9004ECE03400FE79
:101F2000D39004DEE09F9004DDE09E404490050BDA
:101F300012789590001C127775FF9004F6E5F0F08A
:101F4000A3EFF09004ECE475F01C127749AE02AFF9
:101F50000112CE119004ECE0FEA3E0FFC39004DE7A
:101F6000E09FFF9004DDE09E9004D9F0A3EFF080A5
:101F7000959004EDE0241CFF9004ECE03400FE900A
:101F800004DDE0FCA3E0FDC3EF9DFFEE9CFE9005A9
:101F900055E0FDC3EF9DEE940040030220BC900588
:101FA0000B1278959004FA12789E90050B12789592
:101FB0009004D9E0FEA3E0FF29F9EA3EFAC003C08D
:101FC00002C00190055612789590050EE07C00291C
:101FD000F9EC3AFA90057312789EE4900576F0A336
:101FE000F0C3741C9F900579F0E49E900578F0D0C2
:101FF00001D002D00312CFD890050EE02FF090054B
:102000000B12789590001C12777545F0702D12BB5D
:102010006F90050B12789590001CEE8FF01277CC24
:1020200090001C127775FDACF0BCFF06BDFF0302EB
:10203000234DAF05AE047D0112BCA69004FA1278C0
:102040009590050B12789E90050B1278957D1E7C5D
:102050000012D96A90050B12789590001EEE8FF051
:102060001277CC9004F6E0FEA3E07805C333CE33BC
:10207000CED8F92400FFEE3402FE9004FA127895CF
:10208000AC02AD017B207A0012C41690050B1278C9
:102090009590001C127775FF9004F6E5F0F0A3EF21
:1020A000F09004ECE475F01C127749AE02AF011217
:1020B000CE11E49004D9F0A3F0021F0690050B1294
:1020C00078959004FA12789E90050B1278959004FA
:1020D000D9E0FEA3E029F9EA3EFAC003C002C0013C
:1020E00090055612789590050EE0FF7E0029F9EED6
:1020F0003AFA90057312789EE4900576F0A3F0907A
:102100000555E0C39FFFE49E900578F0A3EFF0D063
:1021100001D002D00312CFD890050EE02FF0900529
:1021200055E0FF9004DEE02FFF9004DDE03400FE78
:10213000C3900502E09F900501E09E500F90050BB3
:1021400012789590001CE4F5F01277CC90050B12F4
:1021500078957D1E7C0012D96A90050B12789590B7
:10216000001EEE8FF01277CC9004F6E0FEA3E0782C
:1021700005C333CE33CED8F92400FFEE3402FE90EF
:1021800004FA127895AC02AD017B207A0012C416D5
:1021900090050B127895AE02AF0112CE117E907FA2
:1021A00000229005121278959000051276186403AB
:1021B000600302277390000A127618FD7C009000DD
:1021C00001127775FFAEF01276BE9004F4EEF0A324
:1021D000EFF024FFFFEE34FFFE900505E0B5060C9E
:1021E000A3E0B50707E4900541F0A3F090051212B3
:1021F000789590000A127618FD7C00900001127705
:1022000075FFAEF01276BE9004F4EEF0A3EFF090FE
:10221000051212789590000A12761875F01C840445
:1022200075F01CA4FFAEF09004F0EEF0A3EFF09078
:102230000541E0FCA3E0FD1276AC9004DDEEF0A3D6
:10224000EFF0900007127618540F90050AF0E0FFA7
:1022500024A5F582E43405F583E06480602F12D173
:10226000057E009004E5EEF0A3EFF0EE701FEF2482
:10227000FC600824F46004240F7012900512127898
:1022800095AE02AF0112CE117E987F042290051206
:10229000127895900006127618700CAE02AF0112FB
:1022A000CE117E987F102290051212789590000A28
:1022B000127618FF900555E06F601590050EEFF04F
:1022C000AE02AF0112CE1190050EE0FF7467FE2240
:1022D0009004F4E0FEA3E0FFD3900542E09F900558
:1022E00041E09E4012900512127895AE02AF0112A5
:1022F000CE117E947F0222900541E0FEA3E0FF9084
:1023000004F4E0FCA3E0FD1276BE900541ECF0A3DE
:10231000EDF090051212789590001C127775FFAEC3
:10232000F09004DFEEF0A3EFF04E704512BB6F901B
:10233000051212789590001CEE8FF01277CC900069
:102340001C127775FDACF0BCFF08BDFF057E987FC1
:102350005022AF05AE047D0112BCA6900512127882
:102360009590001C127775FF9004F6E5F0F0A3EF4E
:10237000F09004FA12789590050B12789E7D1E7CE1
:102380000012D96A90050B12789590001EEE8FF01E
:102390001277CC9004DBE0FEA3E07805C333CE33A4
:1023A000CED8F92400FFEE3402FE9004FA1278959C
:1023B000AC02AD017B207A0012C41690051212788F
:1023C00095AE02AF0112CE119004ECE0FEA3E0FF47
:1023D000C39004DEE09FFF9004DDE09E9004D9F0FE
:1023E000A3EFF0E49004E7F0A3F09004F6E0FFA37D
:1023F000E0900503CFF0A3EFF074FFA302258090D7
:102400000505E475F0011277499004F612D0B690F4
:10241000050B12789E9004ECE0FEA3E0FFD390043D
:10242000DEE09F9004DDE09E405D9004F6E0FFA3B7
:10243000E09004E3CFF0A3EFF090050B12789590B5
:10244000001C127775FFAEF09004F6EEF0A3EFF0EB
:10245000900503EEF0A3EFF09004ECE475F01C128D
:102460007749AE02AF0112CE119004ECE0FEA3E07A
:10247000FFC39004DEE09FFF9004DDE09E9004D94E
:10248000F0A3EFF00223FF900541E0FEA3E0FF7C04
:10249000007D1C1276AC900555E02FFFEC3EFE90BF
:1024A00004EDE0241CFD9004ECE03400FCC3ED9F3F
:1024B000EC9E400302258690050B1278959004FA55
:1024C00012789E90050B1278959004D9E0FEA3E057
:1024D000FF29F9EA3EFAC003C002C0019005561276
:1024E000789590050EE07C0029F9EC3AFA90057396
:1024F00012789EE4900576F0A3F0C3741C9F9005BB
:1025000079F0E49E900578F0D001D002D00312CF8C
:10251000D890050B1278957D1E7C0012D96A900523
:102520000B12789590001EEE8FF01277CC9004F687
:10253000E0FEA3E07805C333CE33CED8F92400FF04
:10254000EE3402FE9004FA127895AC02AD017B20C5
:102550007A0012C4169004ECE475F01C12774990CE
:10256000050B12789590001C127775FF9004F6E524
:10257000F0F0A3EFF0AE02AF0112CE11E49004D957
:10258000F0A3F00223FF90050B1278959004FA1245
:10259000789E90050B1278959004D9E0FEA3E0296F
:1025A000F9EA3EFAC003C002C001900556127895C0
:1025B00090050EE0FF7E0029F9EE3AFA90057312BD
:1025C000789EE4900576F0A3F0900555E0C39FFF58
:1025D000E49E900578F0A3EFF0D001D002D0031272
:1025E000CFD890050EE02FF090050B127895900053
:1025F0001C127775FF9004E7E5F0F0A3EFF090046C
:10260000DFE0FFA3E090001CCF8FF01277CC9004A6
:10261000FA12789E90050B1278957D1E7C0012D9D7
:102620006A90050B12789590001EEE8FF01277CC11
:102630009004F6E0FEA3E07805C333CE33CED8F99C
:102640002400FFEE3402FE9004FA127895AC02AD3D
:10265000017B207A0012C41690050B127895AE0209
:10266000AF0112CE1112D0B390051212789E9005D0
:10267000121278959004FA12789E900512127895AD
:1026800090050B12789E900503E0FEA3E0FF9005F5
:102690001212789590001CEE8FF01277CC90050BFB
:1026A0001278957D1E7C0012D96A90050B127895E0
:1026B00090001EEE8FF01277CC9004DBE0FEA3E0DA
:1026C0007805C333CE33CED8F92400FFEE3402FEB2
:1026D0009004FA127895AC02AD017B207A0012C406
:1026E0001690050B127895AE02AF0112CE11900430
:1026F000E312D0B690050B12789E90050B127895D8
:102700009004FA12789E9004E7E0FEA3E0FF9005A3
:102710000B12789590001CEE8FF01277CC7D1E7C0A
:102720000012D96A90050B12789590001EEE8FF07A
:102730001277CC9004E3E0FEA3E07805C333CE33F8
:10274000CED8F92400FFEE3402FE9004FA127895F8
:10275000AC02AD017B207A0012C41690050B1278F2
:1027600095AE02AF0112CE11E4900505F0A3F07E04
:1027700090FF22900512127895AE02AF0112CE1191
:102780007E697F812290055EE0FD90054312789579
:10279000900561EEF0A3EF12D0AB90051212789E77
:1027A000900001127775FFAEF09004D9EEF0A3EF20
:1027B000F0900501EEF0A3EFF090001C127775FF8A
:1027C0009004F6E5F0F0A3EFF0E49004ECF0A3F051
:1027D000900567F0A3F09004FA12789E900512120B
:1027E00078951275FF6404600CAE02AF0112CE1131
:1027F0007E947F0022900512127895900005127643
:102800001864016003022CEE90000A127618FD7C19
:1028100000900001127775FFAEF01276BE90056150
:10282000E0FCA3E0FDC39FEC9E4003022DB49005A5
:1028300005ECF0A3EDF090051212789590000A12C5
:102840007618FF7E00900505E0FCA3E0FD1276AC53
:102850009004DDEEF0A3EFF0900007127618540F0D
:1028600090050AF0E0FF24A5F582E43405F583E045
:102870006480602F12D1057E009004E5EEF0A3EF96
:10288000F0EE701FEF24FC600824F46004240F7045
:1028900012900512127895AE02AF0112CE117E98F9
:1028A0007F04229005121278959000061276187017
:1028B00003022D6590051212789590000A12761881
:1028C000FF900563E06F6003022D8590051212787A
:1028D00095900001127775FFD39004DEE09F90047D
:1028E000DDE095F04003022DBA9005121278959024
:1028F000000812761854F064F060329000011277EC
:1029000075FF900563E0FD9004DEE02DFD9004DD91
:10291000E03400FCD3ED9FEC95F0404A9005121294
:102920007895900001EC8DF01277CC8039900512EB
:10293000127895900001127775FF900563E0FD9085
:1029400004DEE02DFD9004DDE03400FCD3ED9FECCF
:1029500095F04012900512127895AE02AF0112CE9A
:10296000117E677F002290051212789590001C124C
:10297000777545F0704312BB6F90051212789590F1
:10298000001CEE8FF01277CC90001C127775FDAC16
:10299000F0BCFF06BDFF03022F8FAF05AE047D0123
:1029A00012BCA690051212789590001C127775FF44
:1029B0009004F6E5F0F0A3EFF09004FA1278959009
:1029C000050B12789E7D1E7C0012D96A90050B12B1
:1029D000789590001EEE8FF01277CC9004DBE0FE2D
:1029E000A3E07805C333CE33CED8F92400FFEE340C
:1029F00002FE9004FA127895AC02AD017B207A00B9
:102A000012C416900512127895AE02AF0112CE11C3
:102A10009004F6E07002A3E0707112BB6F9004F6B0
:102A2000EEF0A3EFF0BEFF06BFFF03022F8F90046E
:102A3000F6E0FEA3E0FF7D0112BCA6804E9004F6F6
:102A400012D0B690050B12789E9004EDE0241CFF86
:102A50009004ECE03400FED39004DEE09F9004DDAF
:102A6000E09E404490050B12789590001C127775FB
:102A7000FF9004F6E5F0F0A3EFF09004ECE475F0BD
:102A80001C127749AE02AF0112CE119004ECE0FEA9
:102A9000A3E0FFC39004DEE09FFF9004DDE09E9082
:102AA00004D9F0A3EFF080959004EDE0241CFF9092
:102AB00004ECE03400FE9004DDE0FCA3E0FDC3EF95
:102AC0009DFFEE9CFE900563E0FDC3EF9DEE94003C
:102AD0004003022BF790050B1278959004FA1278B8
:102AE0009E90050B1278959004D9E0FEA3E0FF2993
:102AF000F9EA3EFAC003C002C0019005641278955D
:102B0000900567E0FCA3E029F9EA3CFA900573120E
:102B1000789EE4900576F0A3F0C3741C9F9005792D
:102B2000F0E49E900578F0D001D002D00312CFD807
:102B3000900567EE8FF012774990050B127895900B
:102B4000001C12777545F0702D12BB6F90050B12AB
:102B5000789590001CEE8FF01277CC90001C1277C5
:102B600075FDACF0BCFF06BDFF03022F8FAF05AEB5
:102B7000047D0112BCA69004FA12789590050B1200
:102B8000789E90050B1278957D1E7C0012D96A9074
:102B9000050B12789590001EEE8FF01277CC900402
:102BA000F6E0FEA3E07805C333CE33CED8F9240097
:102BB000FFEE3402FE9004FA127895AC02AD017B70
:102BC000207A0012C41690050B12789590001C1202
:102BD0007775FF9004F6E5F0F0A3EFF09004ECE4D5
:102BE00075F01C127749AE02AF0112CE11E49004C9
:102BF000D9F0A3F0022A3D90050B1278959004FAC3
:102C000012789E90050B1278959004D9E0FEA3E00F
:102C100029F9EA3EFAC003C002C0019005641278A7
:102C200095900567E0FEA3E0FF29F9EA3EFA9005DA
:102C30007312789EE4900576F0A3F0900563E0C3EC
:102C40009FFFE49E900578F0A3EFF0D001D002D072
:102C50000312CFD8900567EE8FF012774990056385
:102C6000E0FF9004DEE02FFF9004DDE03400FEC3BF
:102C7000900502E09F900501E09E500F90050B1219
:102C8000789590001CE4F5F01277CC90050B127843
:102C9000957D1E7C0012D96A90050B1278959000E4
:102CA0001EEE8FF01277CC9004F6E0FEA3E07805DC
:102CB000C333CE33CED8F92400FFEE3402FE9004A5
:102CC000FA127895AC02AD017B207A0012C41690FE
:102CD000050B127895AE02AF0112CE11900561E09E
:102CE000FFA3E0900505CFF0A3EFF0023246900578
:102CF0001212789590000512761864036003023270
:102D00004B90051212789590000A127618FD7C00FF
:102D1000900001127775FFAEF01276BE9004F4EECB
:102D2000F0A3EFF090051212789590000A12761831
:102D300075F01C840475F01CA4FFAEF09004F0EE56
:102D4000F0A3EFF0900561E0FCA3E0FD1276AC90FB
:102D500004DDEEF0A3EFF0900006127618701290EA
:102D60000512127895AE02AF0112CE117E987F1037
:102D70002290051212789590000A127618FF90059D
:102D800063E06F601A900567E4F0A3EFF0AE02AF66
:102D90000112CE11900567E04467FEA3E0FF229088
:102DA00004F4E0FEA3E0FFD3900562E09F9005618C
:102DB000E09E4012900512127895AE02AF0112CE3D
:102DC000117E947F02229004F4E0FEA3E0FF9005C0
:102DD00061E0B50638A3E0B5073390051212789587
:102DE00090000A127618FB7A009004F4E0FCA3E04D
:102DF000FDAF037E001276ACEF2BFFEA3EFE90059E
:102E000012127895900001EE8FF01277CC90051297
:102E100012789590001C127775FF9004DFE5F0F0B2
:102E2000A3EFF090050B12789590001C1277754572
:102E3000F0704312BB6F90051212789590001CEE53
:102E40008FF01277CC90001C127775FDACF0BCFFB0
:102E500006BDFF03022F8FAF05AE047D0112BCA695
:102E600090051212789590001C127775FF9004F669
:102E7000E5F0F0A3EFF09004FA12789590050B12AC
:102E8000789E7D1E7C0012D96A90050B1278959071
:102E9000001EEE8FF01277CC9004DBE0FEA3E0780A
:102EA00005C333CE33CED8F92400FFEE3402FE90B2
:102EB00004FA127895AC02AD017B207A0012C41698
:102EC000900512127895AE02AF0112CE119004EC6B
:102ED000E0FEA3E0FFC39004DEE09FFF9004DDE08E
:102EE0009E9004D9F0A3EFF0E49004E7F0A3F090F3
:102EF00004F6E0FFA3E0900503CFF0A3EFF074FF2A
:102F0000A30230DA900505E475F0011277499004C8
:102F1000F612D0B690050B12789E9004ECE0FEA35A
:102F2000E0FFD39004DEE09F9004DDE09E4031900E
:102F300004F6E0FFA3E09004E3CFF0A3EFF09005E8
:102F40000B12789590001C127775FF9004F6E5F04F
:102F5000F0A3EFF09004ECE475F01C127749805D6B
:102F60009004F4E0FEA3E0FF900505E06E7003A37B
:102F7000E06F706E9004F6E07002A3E0706412BB24
:102F80006F9004F6EEF0A3EFF0BEFF08BFFF057EE2
:102F9000987F50229004F6E0FEA3E0FF7D0112BC72
:102FA000A6E49004E7F0A3F09004F6E0FFA3E0901D
:102FB0000503CFF0A3EFF090050B127895AE02AFAA
:102FC0000112CE119004ECE0FEA3E0FFC39004DEFA
:102FD000E09FFF9004DDE09E9004D9F0A3EFF002A3
:102FE0002F04900561E0FEA3E0FF7C007D1C1276BB
:102FF000ACA3E02FFFEC3EFE9004EDE0241CFD901E
:1030000004ECE03400FCC3ED9FEC9E40030230E092
:1030100090050B1278959004FA12789E90050B1289
:1030200078959004D9E0FEA3E0FF29F9EA3EFAC0C2
:1030300003C002C001900564127895900567E0FC1A
:10304000A3E029F9EA3CFA90057312789EE4900512
:1030500076F0A3F0C3741C9F900579F0E49E900570
:1030600078F0D001D002D00312CFD890050B12789F
:10307000957D1E7C0012D96A90050B127895900000
:103080001EEE8FF01277CC9004F6E0FEA3E07805F8
:10309000C333CE33CED8F92400FFEE3402FE9004C1
:1030A000FA127895AC02AD017B207A0012C416901A
:1030B00004ECE475F01C12774990050B127895909A
:1030C000001C127775FF9004F6E5F0F0A3EFF0AE68
:1030D00002AF0112CE11E49004D9F0A3F0022F0444
:1030E00090050B1278959004FA12789E90050B12B9
:1030F00078959004D9E0FEA3E029F9EA3EFAC003EE
:10310000C002C001900564127895900567E0FEA3A7
:10311000E0FF29F9EA3EFA90057312789EE49005E3
:1031200076F0A3F0900563E0C39FFFE49E900578DE
:10313000F0A3EFF0D001D002D00312CFD8900567F2
:10314000EE8FF012774990050B12789590001C12C3
:103150007775FF9004E7E5F0F0A3EFF09004DFE06F
:10316000FFA3E090001CCF8FF01277CC9004FA12EE
:10317000789E90050B1278957D1E7C0012D96A907E
:10318000050B12789590001EEE8FF01277CC90040C
:10319000F6E0FEA3E07805C333CE33CED8F92400A1
:1031A000FFEE3402FE9004FA127895AC02AD017B7A
:1031B000207A0012C41690050B127895AE02AF016A
:1031C00012CE1112D0B390051212789E9004FA120A
:1031D000789E90051212789590050B12789E9005B6
:1031E00003E0FEA3E0FF90051212789590001CEE1C
:1031F0008FF01277CC90050B1278957D1E7C001213
:10320000D96A90050B12789590001EEE8FF0127718
:10321000CC9004DBE0FEA3E07805C333CE33CED8F8
:10322000F92400FFEE3402FE9004FA127895AC0205
:10323000AD017B207A0012C41690050B127895AE72
:1032400002AF0112CE117E907F00229005121278FB
:1032500095AE02AF0112CE117E697F812290055595
:10326000EF12D0AE90051212789E90000112777581
:10327000FFAEF09004D9EEF0A3EFF0900501EEF070
:10328000A3EFF090001C127775FF9004F6E5F0F0C4
:10329000A3EFF0E49004ECF0A3F090050EF090049E
:1032A000FA12789E9005121278951275FF640460E8
:1032B0000CAE02AF0112CE117E947F002290051257
:1032C0001278959000051276186401600302376346
:1032D00090000A127618FD7C0090050574FFF5F049
:1032E000127749AFF0FE1276AC9004DDEEF0A3EF5A
:1032F000F0900007127618540F90050AF0E0FF24B2
:10330000A5F582E43405F583E06480602012D105E0
:103310007E009004E5EEF0A3EFF0EE7010EF24FCD9
:10332000600824F46004240F700302381D90051215
:10333000127895900006127618700302383D9005B9
:103340001212789590000A127618FF900555E06FDA
:10335000600302385D900512127895900001127793
:1033600075FFD39004DEE09F9004DDE095F040030C
:1033700002388D9005121278959000081276185434
:10338000F064F06032900001127775FF900555E00F
:10339000FD9004DEE02DFD9004DDE03400FCD3ED73
:1033A0009FEC95F0404A900512127895900001EC40
:1033B0008DF01277CC80399005121278959000012B
:1033C000127775FF900555E0FD9004DEE02DFD902D
:1033D00004DDE03400FCD3ED9FEC95F04012900545
:1033E00012127895AE02AF0112CE117E677F0022D5
:1033F00090051212789590001C12777545F0704375
:1034000012BB6F90051212789590001CEE8FF0128F
:1034100077CC90001C127775FDACF0BCFF06BDFFA9
:10342000030238EFAF05AE047D0112BCA690051271
:1034300012789590001C127775FF9004F6E5F0F075
:10344000A3EFF09004FA12789590050B12789E7D08
:103450001E7C0012D96A90050B12789590001EEE22
:103460008FF01277CC9004DBE0FEA3E07805C33345
:10347000CE33CED8F92400FFEE3402FE9004FA12C7
:103480007895AC02AD017B207A0012C4169005122B
:10349000127895AE02AF0112CE119004F6E07002E0
:1034A000A3E0707112BB6F9004F6EEF0A3EFF0BED4
:1034B000FF06BFFF030238EF9004F6E0FEA3E0FF33
:1034C0007D0112BCA6804E9004F612D0B690050B7A
:1034D00012789E9004EDE0241CFF9004ECE0340090
:1034E000FED39004DEE09F9004DDE09E4044900512
:1034F0000B12789590001C127775FF9004F6E5F09A
:10350000F0A3EFF09004ECE475F01C127749AE02E2
:10351000AF0112CE119004ECE0FEA3E0FFC39004D3
:10352000DEE09FFF9004DDE09E9004D9F0A3EFF071
:1035300080959004EDE0241CFF9004ECE03400FE44
:103540009004DDE0FCA3E0FDC3EF9DFFEE9CFE9048
:103550000555E0FDC3EF9DEE9400400302367D90DB
:10356000050B1278959004FA12789E90050B12784C
:10357000959004D9E0FEA3E0FF29F9EA3EFAC003E2
:10358000C002C00190055612789590050EE07C00AF
:1035900029F9EC3AFA90057312789EE4900576F0DA
:1035A000A3F0C3741C9F900579F0E49E900578F019
:1035B000D001D002D00312CFD890050EE02FF090AA
:1035C000050B12789590001C12777545F0702D123E
:1035D000BB6F90050B12789590001CEE8FF0127760
:1035E000CC90001C127775FDACF0BCFF06BDFF034C
:1035F0000238EFAF05AE047D0112BCA69004FA12AA
:10360000789590050B12789E90050B1278957D1E8B
:103610007C0012D96A90050B12789590001EEE8FEF
:10362000F01277CC9004F6E0FEA3E07805C333CE29
:1036300033CED8F92400FFEE3402FE9004FA12785B
:1036400095AC02AD017B207A0012C41690050B12D6
:10365000789590001C127775FF9004F6E5F0F0A3C2
:10366000EFF09004ECE475F01C127749AE02AF0164
:1036700012CE11E49004D9F0A3F00234C790050BE8
:103680001278959004FA12789E90050B1278959016
:1036900004D9E0FEA3E029F9EA3EFAC003C002C063
:1036A0000190055612789590050EE0FF7E0029F9ED
:1036B000EE3AFA90057312789EE4900576F0A3F046
:1036C000900555E0C39FFFE49E900578F0A3EFF0CE
:1036D000D001D002D00312CFD890050EE02FF09089
:1036E0000555E0FF9004DEE02FFF9004DDE034009C
:1036F000FEC3900502E09F900501E09E500F9005EB
:103700000B12789590001CE4F5F01277CC90050B25
:103710001278957D1E7C0012D96A90050B1278955F
:1037200090001EEE8FF01277CC9004F6E0FEA3E03E
:103730007805C333CE33CED8F92400FFEE3402FE31
:103740009004FA127895AC02AD017B207A0012C485
:103750001690050B127895AE02AF0112CE117E9035
:103760007F00229005121278959000051276186459
:10377000036003023D1590000A127618FD7C00904C
:103780000001127775FFAEF01276BE9004F4EEF0F1
:10379000A3EFF0900505E07002A3E070149004F52B
:1037A000E024FFFE9004F4E034FF900541F0A3CE46
:1037B000F090051212789590000A12761875F01C98
:1037C000840475F01CA4FFAEF09004F0EEF0A3EFBB
:1037D000F0900541E0FCA3E0FD1276AC9004DDEE34
:1037E000F0A3EFF0900007127618540F90050AF03E
:1037F000E0FF24A5F582E43405F583E06480602FC2
:1038000012D1057E009004E5EEF0A3EFF0EE701FFC
:10381000EF24FC600824F46004240F701290051259
:10382000127895AE02AF0112CE117E987F042290DD
:103830000512127895900006127618700CAE02AF41
:103840000112CE117E987F10229005121278959069
:10385000000A127618FF900555E06F601590050E6E
:10386000EFF0AE02AF0112CE1190050EE0FF7467CB
:10387000FE229004F4E0FEA3E0FFD3900542E09F17
:10388000900541E09E4012900512127895AE02AF6D
:103890000112CE117E947F0222900541E0FEA3E04A
:1038A000FF9004F4E0FCA3E0FD1276BE900541EC2D
:1038B000F0A3EDF090051212789590001C12777528
:1038C000FFAEF09004DFEEF0A3EFF04E704512BBB8
:1038D0006F90051212789590001CEE8FF01277CC45
:1038E00090001C127775FDACF0BCFF08BDFF057E93
:1038F000987F5022AF05AE047D0112BCA690051240
:1039000012789590001C127775FF9004F6E5F0F0A0
:10391000A3EFF09004FA12789590050B12789E7D33
:103920001E7C0012D96A90050B12789590001EEE4D
:103930008FF01277CC9004DBE0FEA3E07805C33370
:10394000CE33CED8F92400FFEE3402FE9004FA12F2
:103950007895AC02AD017B207A0012C41690051256
:10396000127895AE02AF0112CE119004ECE0FEA3E6
:10397000E0FFC39004DEE09FFF9004DDE09E900432
:10398000D9F0A3EFF0E49004E7F0A3F09004F6E0A0
:10399000FFA3E0900503CFF0A3EFF074FFA3023B79
:1039A00022900505E475F0011277499004F612D0D3
:1039B000B690050B12789E9004ECE0FEA3E0FFD3D6
:1039C0009004DEE09F9004DDE09E405D9004F6E010
:1039D000FFA3E09004E3CFF0A3EFF090050B127883
:1039E0009590001C127775FFAEF09004F6EEF0A3F0
:1039F000EFF0900503EEF0A3EFF09004ECE475F027
:103A00001C127749AE02AF0112CE119004ECE0FE19
:103A1000A3E0FFC39004DEE09FFF9004DDE09E90F2
:103A200004D9F0A3EFF00239A1900541E0FEA3E034
:103A3000FF7C007D1C1276AC900555E02FFFEC3E1C
:103A4000FE9004EDE0241CFD9004ECE03400FCC387
:103A5000ED9FEC9E4003023B2890050B1278959059
:103A600004FA12789E90050B1278959004D9E0FE26
:103A7000A3E0FF29F9EA3EFAC003C002C0019005A5
:103A80005612789590050EE07C0029F9EC3AFA90F0
:103A9000057312789EE4900576F0A3F0C3741C9F22
:103AA000900579F0E49E900578F0D001D002D00323
:103AB00012CFD890050B1278957D1E7C0012D96A22
:103AC00090050B12789590001EEE8FF01277CC9037
:103AD00004F6E0FEA3E07805C333CE33CED8F92454
:103AE00000FFEE3402FE9004FA127895AC02AD01AC
:103AF0007B207A0012C4169004ECE475F01C127757
:103B00004990050B12789590001C127775FF900470
:103B1000F6E5F0F0A3EFF0AE02AF0112CE11E490A3
:103B200004D9F0A3F00239A190050B127895900406
:103B3000FA12789E90050B1278959004D9E0FEA3B6
:103B4000E029F9EA3EFAC003C002C001900556120E
:103B5000789590050EE0FF7E0029F9EE3AFA90057F
:103B60007312789EE4900576F0A3F0900555E0C3BB
:103B70009FFFE49E900578F0A3EFF0D001D002D033
:103B80000312CFD890050EE02FF090050B12789518
:103B900090001C127775FF9004E7E5F0F0A3EFF0BA
:103BA0009004DFE0FFA3E090001CCF8FF01277CCF1
:103BB0009004FA12789E90050B1278957D1E7C0079
:103BC00012D96A90050B12789590001EEE8FF012B4
:103BD00077CC9004F6E0FEA3E07805C333CE33CE75
:103BE000D8F92400FFEE3402FE9004FA127895AC66
:103BF00002AD017B207A0012C41690050B12789555
:103C0000AE02AF0112CE1112D0B390051212789EFF
:103C10009005121278959004FA12789E900512126F
:103C2000789590050B12789E900503E0FEA3E0FFC7
:103C300090051212789590001CEE8FF01277CC90C0
:103C4000050B1278957D1E7C0012D96A90050B1227
:103C5000789590001EEE8FF01277CC9004DBE0FE9A
:103C6000A3E07805C333CE33CED8F92400FFEE3479
:103C700002FE9004FA127895AC02AD017B207A0026
:103C800012C41690050B127895AE02AF0112CE1138
:103C90009004E312D0B690050B12789E90050B129B
:103CA00078959004FA12789E9004E7E0FEA3E0FF76
:103CB00090050B12789590001CEE8FF01277CC7D5A
:103CC0001E7C0012D96A90050B12789590001EEEAA
:103CD0008FF01277CC9004E3E0FEA3E07805C333C5
:103CE000CE33CED8F92400FFEE3402FE9004FA124F
:103CF0007895AC02AD017B207A0012C41690050BBA
:103D0000127895AE02AF0112CE11E4900505F0A332
:103D1000F07E90FF22900512127895AE02AF01124C
:103D2000CE117E697F8122900555EEF0EF12D0AD65
:103D300090051212789E900001127775FF9004D9B9
:103D4000E5F0F0A3EFF090001C127775FF9004F6F9
:103D5000E5F0F0A3EFF090000A127618FD7C0090D9
:103D60000001127775FFAEF01276BE9004F4EEF00B
:103D7000A3EFF0E49004ECF0A3F090050EF0A3F0B4
:103D80009005121278959004FA12789E90051212FE
:103D9000789590000A12761875F01C840475F01C52
:103DA000A4FF9004F0E5F0F0A3EFF0900512127874
:103DB000951275FF640460030241D59005121278D4
:103DC00095900005127618640160030240E09000AF
:103DD0000A127618FD7C00900001127775FFAEF094
:103DE0001276BE900555E0FCA3E0FDC39FEC9E401B
:103DF00003024258900505ECF0A3EDF09005121275
:103E0000789590000A127618FF7E009004F0EEF08C
:103E1000A3EFF01276AC9004DDEEF0A3EFF0900586
:103E200012127895900007127618C4540F90050A64
:103E3000F0E0FF24A5F582E43405F583E0648060BA
:103E40002012D1057E009004E5EEF0A3EFF0EE70B5
:103E500010EF24FC600824F46004240F7003024176
:103E60009C90051212789590000612761870030245
:103E700041BC9005121278951275FF64046003022C
:103E800041D590051212789590000A127618FF908D
:103E9000055AE06F60030241F59004F0E0FCA3E0F6
:103EA000FD9004F4E0FEA3E0FF1276ACD39004DEB4
:103EB000E09F9004DDE09E40030242589004F0E051
:103EC000FCA3E0FD9004F4E0FEA3E0FF1276AC90CA
:103ED000055AE0FD9004DEE02DFD9004DDE03400A5
:103EE000FCD3ED9FEC9E40030242589005121278DD
:103EF00095AE02AF0112CE119004F6E07002A3E07D
:103F0000705102427E9004F612D0B690050B1278E2
:103F10009E9004EDE0241CFF9004ECE03400FEC30E
:103F20009004DEE09F9004DDE09E404490050B127B
:103F3000789590001C127775FF9004F6E5F0F0A3D9
:103F4000EFF09004ECE475F01C127749AE02AF017B
:103F500012CE119004ECE0FEA3E0FFC39004DEE07B
:103F60009FFF9004DDE09E9004D9F0A3EFF08095D0
:103F70009004EDE0241CFF9004ECE03400FE90047B
:103F8000DDE0FCA3E0FDC3EF9DFFEE9CFE90055A33
:103F9000E0FDC3EF9DEE94004003024046900557BC
:103FA00012789590050EE07E0029F9EE3AFAC003EA
:103FB000C002C00190050B1278959004D9E0FEA3D1
:103FC000E0FF29F9EA3EFA90057312789EE4900525
:103FD00076F0A3F0C3741C9F900579F0E49E9005E1
:103FE00078F0D001D002D00312CFD890050EE02F88
:103FF000F090050B1278957D1E7C0012D96A900511
:104000000B12789590001E1277756F7003EE65F0B5
:10401000600302440D90050B12789590001C1277F6
:1040200075FF9004F6E5F0F0A3EFF09004ECE47572
:10403000F01C127749AE02AF0112CE11E49004D900
:10404000F0A3F0023F0590055712789590050EE019
:10405000FF7E0029F9EE3AFAC003C002C0019005C4
:104060000B1278959004D9E0FCA3E029F9EA3CFA18
:1040700090057312789EE4900576F0A3F090055AAF
:10408000E0C39FFFE49E900578F0A3EFF0D001D04D
:1040900002D00312CFD890050EE02FF090050B123E
:1040A00078957D1E7C0012D96A90050B1278959048
:1040B000001E1277756F7003EE65F0600302440D09
:1040C00090050B12789590001C127775FF9004F6FE
:1040D000E5F0F0A3EFF0AE02AF0112CE11024436CC
:1040E000900512127895900005127618640360030B
:1040F00002443B90051212789590000A127618FD42
:104100007C00900001127775FFAEF01276BE90052C
:1041100055E0FCA3E0FDCFCDCFCECCCE1276BE9045
:104120000505ECF0A3EDF0900555ECF0A3EDF09053
:10413000051212789590000A12761875F01C840406
:1041400075F01CA4FFAEF09004F0EEF0A3EFF09039
:104150000505E0FCA3E0FD1276AC9004DDEEF0A3D3
:10416000EFF0900007127618C4540F90050AF0E0A3
:10417000FF24A5F582E43405F583E06480602F1206
:10418000D1057E009004E5EEF0A3EFF0EE701FEF96
:1041900024FC600824F46004240F701290051212AD
:1041A0007895AE02AF0112CE117E987F0422900561
:1041B00012127895900006127618700CAE02AF01BC
:1041C00012CE117E987F10229005121278951275EA
:1041D000FF6404600CAE02AF0112CE117E947F002A
:1041E0002290051212789590000A127618FF900519
:1041F0005AE06F601590050EEFF0AE02AF0112CEDF
:104200001190050EE0FF7467FE229004F0E0FCA31D
:10421000E0FD9004F4E0FEA3E0FF1276ACD390043E
:10422000DEE09F9004DDE09E4002802C9004F0E0F0
:10423000FCA3E0FD9004F4E0FEA3E0FF1276AC9056
:10424000055AE0FD9004DEE02DFD9004DDE0340031
:10425000FCD3ED9FEC9E400F900512127895AE02B4
:10426000AF0112CE118017900512127895AE02AFF1
:104270000112CE119004F6E07002A3E070537E9418
:104280007F02229004F612D0B690050B12789E9011
:1042900004EDE0241CFF9004ECE03400FEC3900425
:1042A000DEE09F9004DDE09E404490050B1278957F
:1042B00090001C127775FF9004F6E5F0F0A3EFF084
:1042C0009004ECE475F01C127749AE02AF0112CEF7
:1042D000119004ECE0FEA3E0FFC39004DEE09FFF3A
:1042E0009004DDE09E9004D9F0A3EFF08095900556
:1042F0005AE0D3941C5003024395900557127895C9
:1043000090050EE07E0029F9EE3AFAC003C002C023
:104310000190050B12789590057312789EE4900534
:1043200076F0A3F0A3F0A3741CF0D001D002D00368
:1043300012CFD890050EE02FF090055AE024E4F05B
:1043400090050B1278957D1E7C0012D96A90050BA2
:1043500012789590001E1277756F7003EE65F0600D
:104360000302440D90050B12789590001C1277758E
:10437000FF9004F6E5F0F0A3EFF09004ECE475F0A4
:104380001C127749AE02AF0112CE11E49004D9F0AD
:10439000A3F00242837BFF7ADA790D90050EE0905C
:1043A000055EF01297DB90055712789590050EE0A8
:1043B0007E0029F9EE3AFAC003C002C00190050B55
:1043C00012789590057312789EE4900576F0A3F02C
:1043D00090055AE0FF900578EEF0A3EFF0D001D001
:1043E00002D00312CFD890050EE02FF090050B12EB
:1043F00078957D1E7C0012D96A90050B12789590F5
:10440000001E1277756F7003EE65F0600CAE02AFA0
:104410000112CE117E927F402290050B127895906A
:10442000001C127775FF9004F6E5F0F0A3EFF0AEF4
:1044300002AF0112CE117E907F00229005121278F9
:1044400095AE02AF0112CE117E697F812290055593
:1044500012789E900558EDF012D0B39005121278A4
:104460009E900001127775FF9004D9E5F0F0A3EF5C
:10447000F090001C127775FF9004F6E5F0F0A3EFC2
:10448000F090000A127618FD7C00900001127775FA
:10449000FFAEF01276BE9004F4EEF0A3EFF0E490DD
:1044A00004ECF0A3F090050EF090051212789590B0
:1044B00004FA12789E9005121278951275FF640422
:1044C00060030248AE9005121278959000051276AE
:1044D00018640160030247BD90000A127618FD7C43
:1044E000009004F0ECF0A3EDF0900505E475F00108
:1044F000127749AFF0FE1276AC9004DDEEF0A3EF38
:10450000F0900007127618C4540F90050AF0E0FFEF
:1045100024A5F582E43405F583E06480602012D19F
:10452000057E009004E5EEF0A3EFF0EE7010EF24AE
:10453000FC600824F46004240F70030248759005A1
:104540001212789590000612761870030248959022
:1045500005121278951275FF640460030248AE904C
:10456000051212789590000A127618FF900558E00F
:104570006F60030248CE9004F0E0FCA3E0FD9004DD
:10458000F4E0FEA3E0FF1276ACD39004DEE09F904F
:1045900004DDE09E40030249319004F0E0FCA3E01A
:1045A000FD9004F4E0FEA3E0FF1276AC900558E025
:1045B000FD9004DEE02DFD9004DDE03400FCD3ED41
:1045C0009FEC9E4003024931900512127895AE028D
:1045D000AF0112CE119004F6E07002A3E070510218
:1045E00049579004F612D0B690050B12789E9004AD
:1045F000EDE0241CFF9004ECE03400FEC39004DEE8
:10460000E09F9004DDE09E404490050B1278959069
:10461000001C127775FF9004F6E5F0F0A3EFF09020
:1046200004ECE475F01C127749AE02AF0112CE1112
:104630009004ECE0FEA3E0FFC39004DEE09FFF9057
:1046400004DDE09E9004D9F0A3EFF080959004ED96
:10465000E0241CFF9004ECE03400FE9004DDE0FC5C
:10466000A3E0FDC3EF9DFFEE9CFE900558E0FDC367
:10467000EF9DEE9400400302472390055512789574
:1046800090050EE07E0029F9EE3AFAC003C002C0A0
:104690000190050B1278959004D9E0FEA3E0FF2964
:1046A000F9EA3EFA90057312789EE4900576F0A33D
:1046B000F0C3741C9F900579F0E49E900578F0D0CB
:1046C00001D002D00312CFD890050EE02FF0900554
:1046D0000B1278957D1E7C0012D96A90050B12781A
:1046E0009590001E1277756F7003EE65F0600302FF
:1046F0004AE690050B12789590001C127775FF9092
:1047000004F6E5F0F0A3EFF09004ECE475F01C1271
:104710007749AE02AF0112CE11E49004D9F0A3F0B4
:104720000245E290055512789590050EE0FF7E0057
:1047300029F9EE3AFAC003C002C00190050B1278C5
:10474000959004D9E0FCA3E029F9EA3CFA900573BE
:1047500012789EE4900576F0A3F0900558E0C39F90
:10476000FFE49E900578F0A3EFF0D001D002D003D3
:1047700012CFD890050EE02FF090050B1278957DA2
:104780001E7C0012D96A90050B12789590001E12BB
:1047900077756F7003EE65F06003024AE690050BD3
:1047A00012789590001C127775FF9004F6E5F0F0F2
:1047B000A3EFF0AE02AF0112CE11024B0F90051223
:1047C00012789590000512761864036003024B146A
:1047D00090000A127618FD7C00900001127775FF98
:1047E000AEF01276BEEF24FFFFEE34FFFE9005051B
:1047F000E0B5060DA3E0B5070874FF900505F0A32A
:10480000F090051212789590000A12761875F01C37
:10481000840475F01CA4FFAEF09004F0EEF0FCA34D
:10482000EFF0FD900505E475F001127749AFF0FE59
:104830001276AC9004DDEEF0A3EFF0900007127654
:1048400018C4540F90050AF0E0FF24A5F582E43463
:1048500005F583E06480602F12D1057E009004E5A9
:10486000EEF0A3EFF0EE701FEF24FC600824F4607C
:1048700004240F7012900512127895AE02AF011247
:10488000CE117E987F042290051212789590000632
:10489000127618700CAE02AF0112CE117E987F1006
:1048A000229005121278951275FF6404600CAE0216
:1048B000AF0112CE117E947F0022900512127895DE
:1048C00090000A127618FF900558E06F6015900569
:1048D0000EEFF0AE02AF0112CE1190050EE0FF74A4
:1048E00067FE229004F0E0FCA3E0FD9004F4E0FEFB
:1048F000A3E0FF1276ACD39004DEE09F9004DDE0ED
:104900009E4002802C9004F0E0FCA3E0FD9004F4B3
:10491000E0FEA3E0FF1276AC900558E0FD9004DEC7
:10492000E02DFD9004DDE03400FCD3ED9FEC9E40D3
:104930000F900512127895AE02AF0112CE118017BA
:10494000900512127895AE02AF0112CE119004F6C6
:10495000E07002A3E070537E947F02229004F6126E
:10496000D0B690050B12789E9004EDE0241CFF90C9
:1049700004ECE03400FEC39004DEE09F9004DDE030
:104980009E404490050B12789590001C127775FF9D
:104990009004F6E5F0F0A3EFF09004ECE475F01C61
:1049A000127749AE02AF0112CE119004ECE0FEA3E3
:1049B000E0FFC39004DEE09FFF9004DDE09E9004E2
:1049C000D9F0A3EFF08095900558E0D3941C5003E4
:1049D000024A6E90055512789590050EE07E0029EA
:1049E000F9EE3AFAC003C002C00190050B127895A7
:1049F00090057312789EE4900576F0A3F0A3F0A3DF
:104A0000741CF0D001D002D00312CFD890050EE074
:104A10002FF0900558E024E4F090050B1278957D76
:104A20001E7C0012D96A90050B12789590001E1218
:104A300077756F7003EE65F06003024AE690050B30
:104A400012789590001C127775FF9004F6E5F0F04F
:104A5000A3EFF09004ECE475F01C127749AE02AFBE
:104A60000112CE11E49004D9F0A3F002495C7BFF5F
:104A70007ADA790D90050EE090055EF01297DB90E2
:104A8000055512789590050EE07E0029F9EE3AFA68
:104A9000C003C002C00190050B12789590057312F7
:104AA000789EE4900576F0A3F0900558E0FF90051D
:104AB00078EEF0A3EFF0D001D002D00312CFD8905F
:104AC000050EE02FF090050B1278957D1E7C0012EC
:104AD000D96A90050B12789590001E1277756F7049
:104AE00003EE65F0600CAE02AF0112CE117E927F34
:104AF000402290050B12789590001C127775FF905C
:104B000004F6E5F0F0A3EFF0AE02AF0112CE117E95
:104B1000907F0022900512127895AE02AF0112CE5E
:104B2000117E697F812290055512789E900558ED7F
:104B3000F012D0B390051212789E90000112777592
:104B4000FF9004D9E5F0F0A3EFF090001C12777508
:104B5000FF9004F6E5F0F0A3EFF090000A1276184B
:104B6000FD7C00900001127775FFAEF01276BE90CA
:104B700004F4EEF0A3EFF0E49004ECF0A3F0900561
:104B80000EF09005121278959004FA12789E900516
:104B9000121278951275FF64046003024F7D900530
:104BA0001212789590000512761864016003024E87
:104BB0009690000A127618FD7C009004F0ECF0A3A9
:104BC000EDF090050574FFF5F0127749AFF0FE1295
:104BD00076AC9004DDEEF0A3EFF0900007127618AB
:104BE000C4540F90050AF0E0FF24A5F582E43405D3
:104BF000F583E06480602012D1057E009004E5EE2C
:104C0000F0A3EFF0EE7010EF24FC600824F46004D1
:104C1000240F7003024F44900512127895900006FD
:104C20001276187003024F6490051212789512756F
:104C3000FF64046003024F7D900512127895900086
:104C40000A127618FF900558E06F6003024F9D909E
:104C500004F0E0FCA3E0FD9004F4E0FEA3E0FF120A
:104C600076ACD39004DEE09F9004DDE09E4003022A
:104C700050009004F0E0FCA3E0FD9004F4E0FEA3FB
:104C8000E0FF1276AC900558E0FD9004DEE02DFDCB
:104C90009004DDE03400FCD3ED9FEC9E4003025015
:104CA00000900512127895AE02AF0112CE11900459
:104CB000F6E07002A3E070510250269004F612D084
:104CC000B690050B12789E9004EDE0241CFF900432
:104CD000ECE03400FEC39004DEE09F9004DDE09E33
:104CE000404490050B12789590001C127775FF9048
:104CF00004F6E5F0F0A3EFF09004ECE475F01C127C
:104D00007749AE02AF0112CE119004ECE0FEA3E0B1
:104D1000FFC39004DEE09FFF9004DDE09E9004D985
:104D2000F0A3EFF080959004EDE0241CFF9004ECDC
:104D3000E03400FE9004DDE0FCA3E0FDC3EF9DFF46
:104D4000EE9CFE900558E0FDC3EF9DEE94004003FD
:104D5000024DFC90055512789590050EE07E0029D5
:104D6000F9EE3AFAC003C002C00190050B12789523
:104D70009004D9E0FEA3E0FF29F9EA3EFA9005731A
:104D800012789EE4900576F0A3F0C3741C9F900502
:104D900079F0E49E900578F0D001D002D00312CFD4
:104DA000D890050EE02FF090050B1278957D1E7CB3
:104DB0000012D96A90050B12789590001E12777533
:104DC0006F7003EE65F060030251B590050B127829
:104DD0009590001C127775FF9004F6E5F0F0A3EFB4
:104DE000F09004ECE475F01C127749AE02AF0112AA
:104DF000CE11E49004D9F0A3F0024CBB90055512FB
:104E0000789590050EE0FF7E0029F9EE3AFAC0038E
:104E1000C002C00190050B1278959004D9E0FCA364
:104E2000E029F9EA3CFA90057312789EE490057641
:104E3000F0A3F0900558E0C39FFFE49E900578F042
:104E4000A3EFF0D001D002D00312CFD890050EE02E
:104E50002FF090050B1278957D1E7C0012D96A9078
:104E6000050B12789590001E1277756F7003EE6532
:104E7000F060030251B590050B12789590001C125A
:104E80007775FF9004F6E5F0F0A3EFF0AE02AF0106
:104E900012CE110251DE9005121278959000051283
:104EA0007618640360030251E3900505E07002A3E5
:104EB000E0701D90000A127618FD7C00900001122F
:104EC0007775FFAEF01276BE900505EEF0A3EFF019
:104ED00090051212789590000A12761875F01C84CD
:104EE0000475F01CA4FFAEF09004F0EEF0FCA3EF0C
:104EF000F0FD90050574FFF5F0127749AFF0FE1252
:104F000076AC9004DDEEF0A3EFF090000712761877
:104F1000C4540F90050AF0E0FF24A5F582E434059F
:104F2000F583E06480602F12D1057E009004E5EEE9
:104F3000F0A3EFF0EE701FEF24FC600824F460048F
:104F4000240F7012900512127895AE02AF0112CEA6
:104F5000117E987F04229005121278959000061217
:104F60007618700CAE02AF0112CE117E987F10221F
:104F70009005121278951275FF6404600CAE02AFB2
:104F80000112CE117E947F00229005121278959026
:104F9000000A127618FF900558E06F601590050E14
:104FA000EFF0AE02AF0112CE1190050EE0FF746774
:104FB000FE229004F0E0FCA3E0FD9004F4E0FEA3E8
:104FC000E0FF1276ACD39004DEE09F9004DDE09E1B
:104FD0004002802C9004F0E0FCA3E0FD9004F4E09B
:104FE000FEA3E0FF1276AC900558E0FD9004DEE0F1
:104FF0002DFD9004DDE03400FCD3ED9FEC9E400FCE
:10500000900512127895AE02AF0112CE1180179062
:105010000512127895AE02AF0112CE119004F6E09F
:105020007002A3E070537E947F02229004F612D0A7
:10503000B690050B12789E9004EDE0241CFF9004BE
:10504000ECE03400FEC39004DEE09F9004DDE09EBF
:10505000404490050B12789590001C127775FF90D4
:1050600004F6E5F0F0A3EFF09004ECE475F01C1208
:105070007749AE02AF0112CE119004ECE0FEA3E03E
:10508000FFC39004DEE09FFF9004DDE09E9004D912
:10509000F0A3EFF08095900558E0D3941C500302E4
:1050A000513D90055512789590050EE07E0029F946
:1050B000EE3AFAC003C002C00190050B1278959039
:1050C000057312789EE4900576F0A3F0A3F0A37424
:1050D0001CF0D001D002D00312CFD890050EE02FE3
:1050E000F0900558E024E4F090050B1278957D1EB1
:1050F0007C0012D96A90050B12789590001E1277E9
:10510000756F7003EE65F060030251B590050B12E8
:10511000789590001C127775FF9004F6E5F0F0A3E7
:10512000EFF09004ECE475F01C127749AE02AF0189
:1051300012CE11E49004D9F0A3F002502B7BFF7A39
:10514000DA790D90050EE090055EF01297DB900580
:105150005512789590050EE07E0029F9EE3AFAC0D6
:1051600003C002C00190050B127895900573127868
:105170009EE4900576F0A3F0900558E0FF90057846
:10518000EEF0A3EFF0D001D002D00312CFD89005FB
:105190000EE02FF090050B1278957D1E7C0012D941
:1051A0006A90050B12789590001E1277756F700348
:1051B000EE65F0600CAE02AF0112CE117E927F4020
:1051C0002290050B12789590001C127775FF9004C1
:1051D000F6E5F0F0A3EFF0AE02AF0112CE117E9033
:1051E0007F0022900512127895AE02AF0112CE1107
:1051F0007E697F8122900555EEF0A3EFF0A3EDF0DC
:10520000A3EBF090051512D0B690051212789E907F
:1052100004FE12789E90051212789590050B127874
:105220009E900515E0FFA3E09004F8CFF0A3EFF007
:1052300090055EE0FF7E0012A61CAA06A9077B016E
:1052400090054312789EE490055FF0A3F090055E10
:10525000E0FFA3E0FCA3E0FDC39FEC9400501B9093
:1052600005431278958D828C8374FF12768A90059F
:105270005FE475F00112774980D39005121278959A
:105280001275FFB4040CAE02AF0112CE117E697F1D
:1052900081229004FE12789590001A127775FF9083
:1052A00004F6E5F0F0A3EFF090001D7401127645CE
:1052B0009004FA12789E9004FE12789590050B12D5
:1052C000789E7D1E7C0012D96A90050B127895900D
:1052D000001EEE8FF01277CC9004F8E0FEA3E07889
:1052E00005C333CE33CED8F92400FFEE3402FE904E
:1052F00004FA127895AC02AD017B207A0012C41634
:105300009004F6E07002A3E0600302552312BB6F25
:105310009004FE12789590001AEE8FF01277CC90E0
:10532000001A127775FDACF0BCFF06BDFF030256F4
:1053300003AF05AE047D0112BCA69004FE12789561
:1053400090001A127775FFAEF09004F6EEF0A3EF1E
:10535000F09004DBEEF0A3EFF09004FA12789E9048
:1053600004FE12789590050B12789E90050B12782A
:10537000957D1E7C0012D96A90050B1278959000DD
:105380001EEE8FF01277CC9004F8E0FEA3E07805D3
:10539000C333CE33CED8F92400FFEE3402FE90049E
:1053A000FA127895AC02AD017B207A0012C41690F7
:1053B00004FE127895AE02AF0112CE117F207E005E
:1053C00012A61CAA06A9077B0190051212789E90CE
:1053D0000512127895740412767890055EE0FF7ECF
:1053E0000090055CE0FCA3E0FD1276AC9005121283
:1053F0007895900001EE8FF01277CC900555E0FF84
:10540000A3E0900003CF8FF01277CC9000057401D9
:1054100012768A900006740112768A900557E0C4CD
:1054200054F0FFA3E0540F4F90000712768A9005C6
:1054300059E0C454F090000812768A90055BE0C4ED
:1054400054F0FF90055AE0540F4F90000912768AED
:1054500090055EE090000A12768A9004F8E0FFA3BF
:10546000E0900016CF8FF01277CC900018E4F5F0A2
:105470001277CC90001AE4F5F01277CC90001CE47F
:10548000F5F01277CC9004FA12789E9005121278FB
:105490009590050B12789E7D1E7C0012D96A9005AE
:1054A0000B12789590001EEE8FF01277CC9004F6D8
:1054B000E0FEA3E07805C333CE33CED8F92400FF55
:1054C000EE3402FE9004FA127895AC02AD017B2016
:1054D0007A0012C416900512127895AE02AF01122E
:1054E000CE11E490055FF0A3F090055CE0FCA3E032
:1054F000FD90055FE0FEA3E0FFC39DEE9C4003022C
:1055000057FE1227859004E5EEF0A3EFF07003EE4E
:10551000649060030257DC90055FE475F001127738
:105520004980C69004F6E07002A3E06003025810C0
:105530009005121278951275FF640460030255E21B
:1055400012BB6F900512127895900018EE8FF01232
:1055500077CC900018127775FDACF0BCFF06BDFF4C
:1055600003025603AF05AE047D0112BCA6900512DE
:10557000127895900018127775FFAEF09004F6EE51
:10558000F0A3EFF09004DBEEF0A3EFF09004FA123A
:10559000789E90051212789590050B12789E7D1ECC
:1055A0007C0012D96A90050B12789590001EEE8F40
:1055B000F01277CC9004E9E0FEA3E07805C333CE87
:1055C00033CED8F92400FFEE3402FE9004FA1278AC
:1055D00095AC02AD017B207A0012C4169005120230
:1055E000568312BB6F9004FE127895900018EE8FD0
:1055F000F01277CC900018127775FDACF0BCFF0864
:10560000BDFF057E987F5022AF05AE047D0112BC20
:10561000A69004FE127895900018127775FFAEF0F0
:105620009004F6EEF0A3EFF09004DBEEF0A3EFF0C1
:105630009004FA12789E9004FE12789590050B1251
:10564000789E7D1E7C0012D96A90050B1278959089
:10565000001EEE8FF01277CC9004E9E0FEA3E07814
:1056600005C333CE33CED8F92400FFEE3402FE90CA
:1056700004FA127895AC02AD017B207A0012C416B0
:105680009004FE127895AE02AF0112CE117F207EFB
:105690000012A61CAA06A9077B0190051212789E8B
:1056A000900512127895740412767890055EE0FFEA
:1056B0007E0090055CE0FCA3E0FD1276AC90051244
:1056C000127895900001EE8FF01277CC900555E09E
:1056D000FFA3E0900003CF8FF01277CC9000057409
:1056E0000112768A900006740112768A900557E0BE
:1056F000C454F0FFA3E0540F4F90000712768A9035
:105700000559E0C454F090000812768A90055BE0D9
:10571000C454F0FF90055AE0540F4F9000091276E0
:105720008A90055EE090000A12768A9004F8E0FF05
:10573000A3E0900016CF8FF01277CC900018E4F51C
:10574000F01277CC90001AE4F5F01277CC90001CA0
:10575000E4F5F01277CC90050B12789E7D1E7C004C
:1057600012D96A90050B12789590001EEE8FF012F8
:1057700077CC9005121278959004FA12789E9004D6
:10578000F6E0FEA3E07805C333CE33CED8F924008B
:10579000FFEE3402FEAC02AD017B207A0012C4168B
:1057A000900512127895AE02AF0112CE11E4900569
:1057B0005FF0A3F090055CE0FCA3E0FD90055FE0E6
:1057C000FEA3E0FFC39DEE9C50341227859004E5B4
:1057D000EEF0A3EFF07003EE6490601690054312B4
:1057E0007895AE02AF0112CE119004E5E0FEA3E081
:1057F000FF2290055FE475F00112774980B69005AD
:1058000043127895AE02AF0112CE117E907F002236
:10581000900512127895AE02AF0112CE119004F6E7
:10582000E0FEA3E0FF9004E9EEF0A3EFF012D0BB9E
:1058300090051212789E9004FE12789E9005121226
:10584000789590050B12789E90051212789590002D
:1058500003127775FF900555E0B5F011A3E0B50789
:105860000CAE02AF0112CE117E947F04229005127D
:10587000127895900018127775FF9004F6E5F0F015
:10588000A3EFF0025523900555EEF0A3EFF0A3ED42
:10589000F0A3EBF090051512D0B690051212789E89
:1058A0009004FE12789E90051212789590050B12C6
:1058B000789E900515E0FFA3E09004F8CFF0A3EFE9
:1058C000F090055EE0FF7E0012A61CAA06A9077BE9
:1058D0000190054312789EE490050AF090055EE081
:1058E000FF90050AE0FEC39F50189005431278957B
:1058F0008E8275830074FF12768A90050AE004F0A8
:1059000080DA9005121278951275FFB4040CAE027D
:10591000AF0112CE117E697F81229004FE1278952C
:1059200090001A127775FF9004F6E5F0F0A3EFF0FF
:1059300090001D74011276459004FA12789E90042E
:10594000FE12789590050B12789E7D1E7C0012D970
:105950006A90050B12789590001EEE8FF01277CCAE
:105960009004F8E0FEA3E07805C333CE33CED8F937
:105970002400FFEE3402FE9004FA127895AC02ADDA
:10598000017B207A0012C4169004F6E07002A3E0B6
:105990006003025B9412BB6F9004FE127895900036
:1059A0001AEE8FF01277CC90001A127775FDACF0DA
:1059B000BCFF06BDFF03025C74AF05AE047D01129F
:1059C000BCA69004FE12789590001A127775FFAE6F
:1059D000F09004F6EEF0A3EFF09004DBEEF0A3EF0E
:1059E000F09004FA12789E9004FE12789590050BC0
:1059F00012789E90050B1278957D1E7C0012D96A54
:105A000090050B12789590001EEE8FF01277CC90D7
:105A100004F8E0FEA3E07805C333CE33CED8F924F2
:105A200000FFEE3402FE9004FA127895AC02AD014C
:105A30007B207A0012C4169004FE127895AE02AF55
:105A40000112CE117F207E0012A61CAA06A9077B98
:105A50000190051212789E90051212789574041226
:105A60007678900512127895900001E4F5F012779F
:105A7000CC900555E0FFA3E0900003CF8FF01277A4
:105A8000CC900005740312768A9000067401127699
:105A90008A900557E0C454F0FFA3E0540F4F9000E4
:105AA0000712768A900559E0C454F09000081276E7
:105AB0008A90055BE0C454F0FF90055AE0540F4F04
:105AC00090000912768A90055EE090000A12768AAC
:105AD0009004F8E0FFA3E0900016CF8FF01277CC8F
