:020000040000FA
:1000000002200002FAFD3200000000020129320045
:1000100000000002D42E320000000002FB0032007B
:1000200000000002FB03320000000002FB06320069
:1000300000000002EEAD320000000002A71822020C
:03004000D80522BE
:1000470002A3E72202DD582202DDE72202AE8E225A
:1000570002F3702202F2472202996C2202F3A922CC
:1000670002F2842202696C220297762202C49C2241
:1000770002C6A72202CA942202C5A22202A89C2273
:1000870002E9492202E8E22202ECA32202E01C2252
:1000970002D8A22202DE762202F85B2202D3812254
:1000A70002D93E2202F4532202F4C12202EC4B226F
:1000B70002E4422202F91B2202F2FC2202F3362258
:0400C70002BCC8228D
:0800E30002F7992202F7EA225C
:1000F30002F6242202F7C32202EA122202FAC322E0
:10010300029B4F2202F655220289E62200000000DC
:10011300C5F0F8A3E028F0C5F0F8E5821582700277
:100123001583E038F022C0E0C0F0C083C082C0D0A5
:1001330075D000C000C006C007C2A99006DCE475F4
:10014300F0011201139006DCE0FEA3E0FFC3EF947D
:10015300B0EE9404500C758CC3758A50C28DD2A92D
:100163008035900107740DF0758C00758A00C28D7F
:10017300C2A9D007D006D000D0D0D082D083D0F08F
:10018300D0E0D0E0D0E075810975080875090090CA
:10019300C7A7C082C08332D007D006D000D0D0D04A
:0801A30082D083D0F0D0E032DD
:1002000012748AEBF012748AEDF012748AEFF09097
:10021000FFDD124B7D12742BE4F0900024124BA1F1
:10022000E04480F0900024124BA1E0247D70030292
:10023000106C24F6700302087F24FD60030215ADE4
:100240001215E51217D7124B2A02AE0102D109028C
:10025000F30A03150B03370C02AE1102D11902F396
:100260001A03151B03371C036320040540027A8020
:100270000474E005B0E1000005FB9000261273E76E
:100280001246B9FF9006B4F0BF03117F031280013C
:100290009006B47401F012742B74C0F0900317E050
:1002A000FFA3E09006B2CFF0A3EFF00205FB9000B1
:1002B000261273E7127450EFF012740E1273BD120F
:1002C00073ED12DD58127454E0443090039202032F
:1002D000579000261273E7127450EFF012740E124A
:1002E00073BD1273ED12DD58127454E04430900364
:1002F000A580649000261273E7127450EFF0127418
:100300000E1273BD1273ED12DD58127454E04430B6
:100310009003A780429000261273E7127450EFF00A
:1003200012740E1273BD1273ED12DD58127454E084
:1003300044309003A980209000261273E712745075
:10034000EFF012740E1273BD1273ED12DD581274B9
:1003500054E044309003ABF01274C7E4F0A37493FC
:100360000205EF9000261273E71246B99006B5F029
:10037000640560030205FB781B7C037D017BFF7A2B
:10038000597960FE7F051246931274547406F01278
:100390007454E0900319F0A37404F07E001216AEBA
:1003A000127581B40B151273E71274967BFF7A599C
:1003B00079447F081273DF740880051273C67407CE
:1003C000124732E490031AF012747AEFF01275C9F2
:1003D0001273BD1275C9126607EF049003191274E7
:1003E000191273BD9000071273B712748A7483F0E8
:1003F00012748A1217951273E412D80512742B74B2
:10040000C0F00205FB9000261273E71246B9900671
:10041000B0F0640260030205FBFE1216AE12758195
:10042000B40B171273E71274967BFF7A59796B7EBF
:10043000007F061273E1740680141273E7E9240149
:10044000F9E43AA8017A5979721273D874071247FD
:10045000329000041273B712748A7482F012748A94
:1004600074231217EB1273E412D80512742B744024
:10047000F00205FB9000261273E7127450EFF012A1
:1004800075891273F61217A81273F612A3E7127485
:1004900054E07C6FB401047D2B80027D2E7B0190A3
:1004A00000191273F612A3E71216ED7C3F7D0012BD
:1004B00073E412A3E77C7F7DA01273E412A3E77CB0
:1004C0006F7D201273E412A3E71273E412F79912FE
:1004D00075939000101273E7127573D39480E5F052
:1004E0009400405912742B12763B9000101273E75F
:1004F0001275732480FFE5F034FFFE12742B127620
:100500006F503A1274C7E4F074801274181273BDFD
:100510007B0190001E1273F612DD581274C7E4F0CE
:10052000A374801274191273BD12760F1273E7123E
:10053000DDE712742B75F08012757B80AD90001092
:100540001273E712757312742A1274B8EEF0A3EFE7
:100550001274191273BD7B0190001E1273F61217EC
:10056000FC1273E712757312742A1274B8EEF0A3BA
:10057000EF1274191273BD9000091273E712DDE7D0
:100580001274C7E4F0A3740A1274191273BD7C00CC
:100590007D009000091273E71217FC1273E712D85E
:1005A000051273E41217C4E4900315F0A3F0804B16
:1005B000900319E0127453EF1274CD1273F612A364
:1005C000E71274C7E4F0A3740C1274191273BD120D
:1005D00073ED12DD58127454E090031CB4010574DD
:1005E0000BF08003740EF01274C7E4F0A3740C12C5
:1005F00074191273BD1273ED12DDE7900023124BD4
:10060000A1E054F0641060030215AD12740E127371
:10061000BD1273ED12DD587F141216FE7F0D1217F6
:10062000357F0A1217B57E007F0A12A71890000DB9
:100630001275967E007F147D009000101273E712F1
:1006400076421273E712753F9000161273E7127527
:100650003F9000071273E712753F90000A1273E78C
:1006600012753F90000D1273E7124E419000101268
:1006700073E71274EE12741A7E007F141246939080
:1006800000131273E71274EE7A03792E12755B125F
:1006900073E7E924021274997B017A03793E7F0A99
:1006A00012755F1273E79000021246D21247329021
:1006B00000161273E79000031246D2900001124711
:1006C00044900002742D1247449000041246D290C8
:1006D00000031247449000051246D29000041247CE
:1006E00044900005742D12474490000CE4124744D6
:1006F0009006AFE0640B60030207A77DB91274D0C7
:100700001273F612A3E712748A12764F1273B7129D
:1007100074A21273F612AE8E7DBA1274F71273F6CB
:1007200012A3E712748A740AF090000B1273B79048
:1007300003A71274A51273F612AE8E9003A9E0F40B
:1007400060447DBB1275491273F612A3E712748AD6
:10075000740AF090000E1273B79003A91274A512D8
:1007600073F612AE8E90000D1273B790000D1273D7
:10077000939000131273B790001F1273B77BFF7A28
:1007800059797E02082F90000A1273B7900019124F
:1007900073B79000191273B79000101273A57BFF06
:1007A0007A5A791502085B7DE91275491273F612BF
:1007B000A3E712748A12764F1273B71274A21273DF
:1007C000F612AE8E7DEA1275AB1273F612A3E71223
:1007D000748A740AF090000B1273B79003A7127416
:1007E000A51273F612AE8E9003A9E0F4604F7DEB74
:1007F0001275AB1273F612A3E712748A740AF090A2
:10080000000E1273B79003A91274A51273F612AEFC
:100810008E90000D1273B790000D12739390001319
:100820001273B790001F1273B77BFF7A5A79A31225
:1008300073BD1275C91289E6900012802A90000AD1
:100840001273B79000191273B79000191273B79012
:1008500000101273A57BFF7A5B79251273BD1275A8
:10086000C91289E690000F124B7D1274F51273F6CF
:1008700012A3E790000D1273E712D8050214DD12DF
:1008800075E5E014F09000261273E71246B9127570
:1008900017E0900025701B127485EFF01273BD9065
:1008A000002A1273E712752A12BDF41275E5EFF0F3
:1008B00080211274E31273E712752AC003C002C0CC
:1008C000019000261273E71274EED001D002D0031B
:1008D0001246931215E51217D7124B2A0913020973
:1008E0004D0309870409C2050A17060A57070A912A
:1008F00008091312094D1309871409C2150A17169E
:100900000A57170A91180AF4210DA8410EFF420058
:100910000015AD1215B8C003C002C0011273E41275
:1009200074EED001D002D0031273E11273FE127381
:10093000BD1273ED12DD587F101276957A0379940B
:100940001274621273E478947C03020ADA1215B806
:10095000C003C002C0011273E41274EED001D002D1
:10096000D0031273E11273FE1273BD1273ED12DD28
:10097000587E007F147D0012741A1274621273E4A0
:1009800078197C03020ADA12168D1274E71273E7E3
:10099000C003C002C0011273E41274EED001D00291
:1009A000D0031273E11273FE1273BD1273ED12DDE8
:1009B000587A03792E12745A1273E4782E7C03024B
:1009C0000ADA9000261273E712C27BEF704012160B
:1009D0008D1274E71273E7C003C002C0011273E402
:1009E0001274EED001D002D0031273E11273FE1222
:1009F00073BD1273ED12DD581275427B017A0379D3
:100A00003E1274621273E4783E7C03020ADA1274B6
:100A10002B7421F00215AD1274651216BD1273E726
:100A2000C003C002C0011273E41274EED001D00200
:100A3000D0031273E11273FE1273BD1273ED12DD57
:100A4000587F321276957A0379491274621273E4F0
:100A500078497C03020ADA1274651216BD1273E734
:100A6000C003C002C0011273E41274EED001D002C0
:100A7000D0031273E11273FE1273BD1273ED12DD17
:100A8000587A03797C12745A1273E4787C7C038060
:100A90004912746512A7189000041275961274E03A
:100AA0001273E7C003C002C0011273E41274EED0E7
:100AB00001D002D0031273E11273FE1273BD1273E0
:100AC000ED12DD587E007F057D007B017A03798C75
:100AD0001274621273E4788C7C037D0112469312C7
:100AE000740E1273BD1273ED12DDE71273E412D8A7
:100AF000050215AD9006B5E024FA7003020C04243B
:100B0000046003020CD712755160031216D71274D9
:100B1000651217841274DD1273E7C003C002C001AE
:100B2000127490D001D002D0031246937F15121791
:100B300075127581B40B171273E71274967BFF7AE6
:100B40005B799D7E007F0D1273E1740D8015127329
:100B5000E71274967BFF7A5B79AB7E007F1312738A
:100B6000E1741312473212742B12763B12748AE42A
:100B7000F012748A7423F07D019000041275021241
:100B8000EF7C12742B12757912748A7482F07D8155
:100B900090000312750212F48A12742B12757912E6
:100BA00073E412752A1273BD9000071273E71246A0
:100BB000B9127489EFF07D0D1274FF12E23D1274C8
:100BC0002B1275797BFF7A5B79BE1273BD12748A22
:100BD0007402F07D111274FF12E23D12742B127533
:100BE0007912742BA3A3A3E0FD12741A12F76D12ED
:100BF00073E412D80512742B7460F09006B5740675
:100C0000F00215AD9006AC127554600312175F1216
:100C100074651218031275E5E09006AC1274D812D0
:100C200073E7C003C002C0019006AC127493D001F8
:100C3000D002D0031246939000261273E71275B3C8
:100C40001273E7127432EFF0127454127526C00357
:100C5000C002C0019000261273E7E92407127499BC
:100C6000D001D002D0031246931274541276271288
:100C700073E712759C1246B9FD7C00C004C00512D2
:100C8000752AC003C002C0019000261273E71275D6
:100C9000EBD001D002D003D007D0061246939006C5
:100CA000AC12744DE024082F127453EFF09000261C
:100CB0001273E7121653127581B40B101273E712F8
:100CC00074961275681273E1740880051273C67405
:100CD00007124732020FFB12755160031216D7122A
:100CE00074651217849006A91274D81273E7C003B2
:100CF000C002C001127490D001D002D003124693FA
:100D00009000261273E71275B31273E7127432EF74
:100D1000F0127454127526C003C002C00190002660
:100D20001273E7E92407127499D001D002D003129C
:100D30004693127454E02407127453EFF090002687
:100D40001273E7121653127581B40B101273E71267
:100D500074961275681273E1740880051273C67474
:100D6000071247329000261273E71274731275FD52
:100D7000FA1273BD90002B1273E71275FFFA126618
:100D8000079000261273E712767B1273B790000764
:100D90001273B712748A7483F012748A1217951240
:100DA00073E412D80502105712161C12A3E790061E
:100DB000B0E064016003020ECD900025127485EF4F
:100DC000F09000271273B790002A1273B77D017B51
:100DD000019000201273F612696C12742BA3A3EE1B
:100DE000F0A3EFF012742BA3A3E0FEE47003EE6413
:100DF0009F600302113D7B019000191273F612F7F8
:100E0000999000041275961273E49000121246D263
:100E1000127489EF1274191273BD900006124BA15F
:100E2000A3E01274AF1273F612AE8E1273E412D8EE
:100E300005127551600312171F900327E075F00229
:100E4000A42401FFE435F0FE12180D12742BA3A3A5
:100E5000E4F0A304F0127454740FF012742B1276A1
:100E60003B900327E0240FFFE433FE127454E0FDAF
:100E7000C39FEE6480F8748098504874192DF582F1
:100E8000E43403F583E0127513E0FF643F60091258
:100E9000765612742B1275D0127454E02419F58210
:100EA000E43403F583E054F0C4127513E0FF643FAB
:100EB000600912765612742B1275D0127454E00425
:100EC000F0809E12742BA3A3A3E014802712755107
:100ED000600312171F12746512180D1274E012735A
:100EE000E7C003C002C001127490D001D002D00349
:100EF0001275E2E0FF127656EF1247320215AD90FE
:100F000006AC127554600312175F12746512180351
:100F10001274E01273E7C003C002C0019006AC1265
:100F20007493D001D002D0031275E2E0FF1275A5D0
:100F300012767B1273E71275B31273E71275FFA86E
:100F4000017A5B79C712743EEFF012745412752661
:100F5000C003C002C0019000261273E7E924071203
:100F60007499D001D002D0031246931274541276B1
:100F7000271273E712759C1246B9FD7C00C004C0AD
:100F80000512752AC003C002C0019000261273E743
:100F90001275EBD001D002D003D007D006124693D1
:100FA0009006AC12744DE024082F127453EFF090A9
:100FB00000261273E7127454E0FF04F08F827583E9
:100FC000007423124744127454E0FFF582758300C5
:100FD000E4124744EF1247327F0A121775127581E7
:100FE000B40B101273E71274961275681273E174E1
:100FF0000880051273C674071247329000261273D8
:10100000E71274731275FDFA1273BD90002B127300
:10101000E71275FFFA1266079000261273E7127640
:101020007B1273B79000071273B712748A7483F03F
:1010300012748A7412F07BFF7A59796612AD189097
:101040000008124B7D1273E412D8051275A512D850
:10105000059006AC12760612765612D8059006A9AF
:1010600012760612742B74C0F00215AD1275891237
:1010700073F61217A81273F612A3E71274F512731F
:10108000F612A3E7900023124BA1E024F3700302B1
:10109000138124FE700302131324AF70030215564C
:1010A000247E7003021146245260030215AD9000A5
:1010B000261273E71246B960030215AD1274CE1200
:1010C00073F612A3E71274C7E4F0A3740C12741938
:1010D0001273BD1273ED12DD5890031BE09006AF42
:1010E000F0900319E09006B4F09006B1E0B4010866
:1010F000E4F090031A74FFF09006B4E0B4FF0374B8
:1011000001F01274C7E4F0A3740C1274191273BDC9
:101110001273ED12DDE790031AE07017900319E0E7
:10112000FF1280019006B17401F012742B7460F00C
:101130000215AD900319E0F470030215AD12742B83
:101140007480F00215AD9000261273E71246B96064
:10115000030215AD1274CE1273F612A3E71274C710
:10116000E4F0A3740C1274191273BD1273ED12DD46
:101170005890031CE0F470030215AD1275891273C8
:10118000F612A3E77DA01275C11273F612A3E790C1
:10119000031CE0B40B0C9006AF740BF07C6F7D2B3E
:1011A000801190031CE0B40E159006AF740EF07C15
:1011B0006F7D2E7B019000191273F612A3E71216B1
:1011C000ED7C3F7D001273E412A3E77C7F7DA012CB
:1011D00073E412A3E77C6F7D201273E412A3E7127D
:1011E00073E412F7991275939000101273E7127559
:1011F00073D39480E5F09400405D12742B12763B1B
:101200009000101273E71275732480FFE5F034FF2D
:10121000FE12742B12766F503E1274C7E4F0A37462
:10122000801274191273BD7B0190001E1273F612A6
:10123000DD581274C7E4F0A374801274191273BDE0
:1012400012760F1273E712DDE712742BA3A3E47575
:10125000F08012480380A99000101273E712757392
:1012600012742A1274B8EEF0A3EF1274191273BD3F
:101270007B0190001E1273F612DD5890001012735D
:10128000E712757312742A1274B8EEF0A3EF127499
:10129000191273BD9000091273E712DDE71274C7CB
:1012A000E4F0A3740A1274191273BD7C007D0090DF
:1012B00000091273E712DD589000101273E712D87C
:1012C000051273E41217C4E4900315F0A31274CD51
:1012D0001273F612A3E71274C7E4F0A3740C12742D
:1012E000191273BD1273ED12DD589006AFE0900332
:1012F0001BF0A374FFF01274C7E4F0A3740C127413
:10130000191273BD1273ED12DDE712742B7420F005
:101310000215AD9000261273E71246B9600302155C
:10132000451274CE1273F612A3E71274C7E4F0A349
:10133000740C1274191273BD1273ED12DD589006FD
:10134000B4E0900319F0E4A3F01274C7E4F0A374BE
:101350000C1274191273BD1273ED12DDE712161C14
:101360001217E21273F612E8E21275BF1273F61248
:1013700017521273F61217E21273F612E8E2021510
:10138000AD9000261273E71246B9600302154512AC
:10139000740E1273BD1273ED12DD587F321216FEF9
:1013A0007F061217357F101217B57E007F327D0041
:1013B0009000101273E71276421273E7124E417ECC
:1013C000007F057D009000161273E712753F9000B4
:1013D000071273E7124E417E007F107D0090000AD5
:1013E0001273E7124E419000101273E71274EE7BF5
:1013F000017A0379497E007F3212469390001312DE
:1014000073E71274EE7A03797C12755B1273E7123C
:1014100074EE7B017A03798C7E007F051275611270
:1014200073E7900005E412474490000A1273E71234
:1014300074EE7B017A0379947E007F1012469390BC
:1014400006AFE0640B70557DB21276831273F6120C
:10145000A3E712748A12764F1273B7900392127434
:10146000A51273F612AE8E9003ABE07F00B4FF02BC
:101470007F01EF146010146018800012736C7BFF02
:101480007A5B79CD803F12736C7BFF7A5C795A80EE
:101490003412736C7BFF7A5C79F380297DE21276DB
:1014A000831273F612A3E712748A12764F1273B77F
:1014B0009003921274A51273F612AE8E12736C7BA7
:1014C000FF7A5D798F1273BD1275C91289E690009B
:1014D0000F124B7D1274F51273F612A3E790000AF7
:1014E0001273E712D8059000071273E712D805901F
:1014F00000161273E712D8059000131273E712D882
:10150000059000101273E712D8051275C912F9DAA6
:10151000127454EFF0127454E004900319F0A374A1
:1015200004F012742BA3A3E4F01274181273BD120A
:10153000748A7482F012748A74211217EB12742B5D
:101540007440F080689006B2E0FFA3E0900317CFEC
:10155000F0A3EFF080579000261273E71246B960AF
:101560004C1275891273F612A3E71275BF1273F647
:1015700012A3E77C6F7D3A7B019000191273F6127B
:10158000A3E77B019000191273F612E9491275BFA7
:101590001273F61217521273F612A3E77B01900032
:1015A000191273F612E94912742B7481F012742B1C
:1015B000E0FF900029024B7D900025124BA1E02412
:1015C00001FFE433FE12A718900004124BA1124A47
:1015D00029900025124BA1E0FF7E00900026124BBF
:1015E000A1124A09227C3F7D007B01900019124B19
:1015F000A1A982AA8312A3E77C7F7DA07B01900032
:1016000019124BA1A982AA8312A3E77C6F7D027BEA
:1016100001900019124BA1A982AA83227C3F7D0070
:101620007B01900019124BA1A982AA8312A3E77C27
:101630007F7D107B01900019124BA1A982AA831211
:10164000A3E77C6F7D3A7B01900019124BA1A98220
:10165000AA8322900021124BA1E0FF04F08F827533
:1016600083007423124744900021124BA1E0FFF540
:1016700082758300E4124744EF1247327E007F0AEE
:1016800012A718900004124BA1124A29229000259B
:10169000124BA1E02401FFE433FE12A718900004CE
:1016A000124BA1124A29900025124BA1E0227F097A
:1016B00012A718900004124BA1124A292212A7184F
:1016C000900004124BA1124A29900025124BA1E070
:1016D000FF7E00900026229006A9124A0912D80522
:1016E0007B007A0079009006A9124A29227E007FA9
:1016F0000812A718900004124BA1124A29227E005A
:1017000012A718900010124BA1124A297E007F0FD9
:1017100012A718900013124BA1124A297E002290A2
:1017200006A9124A0912D8057B007A0079009006B2
:10173000A9124A292212A718900016124BA1124A88
:10174000297E007F0A12A718900007124BA1124AA7
:10175000292212A3E77C6F7D427B01900019229021
:1017600006AC124A0912D8057B007A00790090066F
:10177000AC124A29227E0012A718900004124BA135
:10178000124A292212A7189006A9124A2990002568
:10179000124BA1E0227412F07BFF7A59796612ADE8
:1017A00018900008124B7D2212A3E77C7F7DA07B5E
:1017B00001900019227E0012A71890000A124BA176
:1017C000124A292212D80590031BE0FFA3E09003E0
:1017D00017CFF0A3EFF02212A3E7900023124BA142
:1017E000E02212A3E77B0190001922F07BFF7A59D7
:1017F000797A12AD18900005124B7D2212DD5890B7
:1018000000102212A7189006AC124A292212A7181B
:101810009006A9124A292290FFFD124B7D124A29F7
:1018200090FFFE124B7DEEF0A3EFF090FFF0124B15
:101830007D8508838509827490F0A3E4F085088390
:10184000850982A3A3E4F0A3E4F090000C124BA15D
:10185000E4F0A3E4F090000E124BA1E4F0A3E4F056
:10186000900010124BA1E0FEA3E0FF12D76585089F
:1018700083850982A3A3EEF0A3EFF0900010124B32
:10188000A1E0FEA3E0FF7C017DFC124778900004FC
:10189000124BA1EEF0A3EFF0900004124BA1C08315
:1018A000C082E0FEA3E0FF7C017DFC124766D0828F
:1018B000D083EEF0A3EFF0850883850982A3A3E02F
:1018C000FEA3E0FFEF64FF7003EE64FF70457E024D
:1018D0007F007DFF7B017A01790A124E4190001052
:1018E000124BA1E0FEA3E0FF7C017DFC1247789043
:1018F0000306EEF0A3EFF09003087480F090030964
:1019000074AAF012DC33900008124BA1EEF0A3EFA2
:10191000F0805C850883850982A3A3E0FEA3E0FF35
:10192000EEC313FF7E00900008124BA1EEF0A3EF70
:10193000F0900008124BA1C083C082E0FEA3E0FF3C
:10194000EF7F0025E0FED082D083EEF0A3EFF09091
:10195000FFFE124B7D7402F0A3E4F07B017A017963
:101960000A90000A124BA1E0FEA3E0FF12EBEF90F9
:101970000004124BA1E0FEA3E0FFEF24FCFFEE34D5
:1019800001FE900010124BA1E0FCA3E0FDC3EF9D0F
:10199000FFEE9CFE900006124BA1EEF0A3EFF012BA
:1019A000DC3390000A124BA1EEF0A3EFF090000A96
:1019B000124BA1E0FEA3E0FFEFB4FF1AEEB4FF1656
:1019C000900008124BA1E0FEA3E0FF90000A124B2A
:1019D000A1EEF0A3EFF090000A124BA1E0FEA3E00D
:1019E000FFEFB4FF0BEEB4FF077E657F01021FF728
:1019F000900015124BA1E0FEA3E0FF900006124BF1
:101A0000A1E0FCA3E0FDD3ED9FEC9E5003021CDCA3
:101A1000900004124BA1E0FEA3E0FF900010124BD7
:101A2000A1E0FCA3E0FDC3ED9FFFEC9EFE90000E45
:101A3000124BA1EEF0A3EFF0900015124BA1E0FEC7
:101A4000A3E0FF900012124BA1124A0990000C1261
:101A50004BA1E0FCA3E0FDE92DF9EA3CFAC003C08C
:101A600002C00190000E124BA1E0FCA3E0FD740A3D
:101A70002DF974013CFA7B01A801AC02AD03D00141
:101A8000D002D003124693900308E0FFEF30E7073F
:101A9000900308E4F08006900308E004F07B017AEC
:101AA00001790A90000A124BA1E0FEA3E0FF12E8C0
:101AB00009850883850982EEF0A3EFF08508838508
:101AC0000982E0FEA3E0FFEF64007003EE64906023
:101AD0000E850883850982E0FEA3E0FF021FF790D0
:101AE000000A124BA1E0FEA3E0FF900008124BA1F8
:101AF000E0FCA3E0FDED6F7002EC6E603C9000082E
:101B0000124BA1E0FEA3E0FF12ED42850883850998
:101B100082EEF0A3EFF0850883850982E0FEA3E062
:101B2000FFEF64007003EE6490600E850883850902
:101B300082E0FEA3E0FF021FF7900010124BA1E02D
:101B4000FEA3E0FF7C017DFC12477890000E124B53
:101B5000A1EEF0A3EFF09006CDE0FEA3E0FFEF646E
:101B6000FF7003EE64FF70377E027F007DFF7B0114
:101B70007A01790A124E41900010124BA1E0FEA3A7
:101B8000E0FF7C017DFC124778900306EEF0A3EFA6
:101B9000F09003087480F09003097455F0801D9054
:101BA000FFFE124B7D7402F0A3E4F07B017A017911
:101BB0000A9006CDE0FEA3E0FF12EBEF90000A12C0
:101BC0004BA1E0FCA3E0FD90000E124BA1E0FEA3B0
:101BD000E0FFEF25E0FFEE33FE740A2FF58274017B
:101BE0003EF583ECF0A3EDF012DC3390000A124BCB
:101BF000A1EEF0A3EFF0900308E0FFEF30E70790CD
:101C00000308E4F08006900308E004F07B017A0109
:101C1000790A90000A124BA1E0FEA3E0FF12E80946
:101C2000850883850982EEF0A3EFF0850883850996
:101C300082E0FEA3E0FFEF64007003EE6490600EAC
:101C4000850883850982E0FEA3E0FF021FF7900666
:101C5000CDE0FEA3E0FF900008124BA1EEF0A3EF51
:101C6000F090000A124BA1E0FEA3E0FF9006CDEE3B
:101C7000F0A3EFF0900008124BA1E0FEA3E0FF906C
:101C8000000A124BA1E0FCA3E0FDED6F7002EC6EC8
:101C9000603C900008124BA1E0FEA3E0FF12ED4271
:101CA000850883850982EEF0A3EFF0850883850916
:101CB00082E0FEA3E0FFEF64007003EE6490600E2C
:101CC000850883850982E0FEA3E0FF021FF79000EC
:101CD0000E124BA1E4F0A3E4F0021FEC90000412FA
:101CE0004BA1E0FEA3E0FF900010124BA1E0FCA38B
:101CF000E0FDC3ED9FFFEC9EFE90000E124BA1EEA7
:101D0000F0A3EFF0900006124BA1E0FEA3E0FF90DD
:101D10000012124BA1124A0990000C124BA1E0FCD8
:101D2000A3E0FDE92DF9EA3CFAC003C002C001902E
:101D3000000E124BA1E0FCA3E0FD740A2DF9740122
:101D40003CFA7B01A801AC02AD03D001D002D00364
:101D5000124693900308E0FFEF30E707900308E492
:101D6000F08006900308E004F07B017A01790A9084
:101D7000000A124BA1E0FEA3E0FF12E809850883E8
:101D8000850982EEF0A3EFF0850883850982E0FEE5
:101D9000A3E0FFEF64007003EE6490600E8508839B
:101DA000850982E0FEA3E0FF021FF7900008124BB6
:101DB000A1E0FEA3E0FF12ED42850883850982EED3
:101DC000F0A3EFF0850883850982E0FEA3E0FFEF32
:101DD00064007003EE6490600E850883850982E0DC
:101DE000FEA3E0FF021FF7900010124BA1E0FEA33C
:101DF000E0FF7C017DFC12477890000E124BA1EEB3
:101E0000F0A3EFF09006CDE0FEA3E0FFEF64FF70DB
:101E100003EE64FF70427E027F007DFF7B017A014A
:101E2000790A124E41900010124BA1E0FEA3E0FF90
:101E30007C017DFC124778900306EEF0A3EFF09052
:101E400003087480F09003097455F012DC33900697
:101E5000CDEEF0A3EFF0801D90FFFE124B7D7402DB
:101E6000F0A3E4F07B017A01790A9006CDE0FEA3AD
:101E7000E0FF12EBEF90000A124BA1E0FCA3E0FDA3
:101E800090000E124BA1E0FEA3E0FFEF25E0FFEE75
:101E900033FE740A2FF58274013EF583ECF0A3ED56
:101EA000F012DC3390000A124BA1EEF0A3EFF09099
:101EB0000308E0FFEF30E707900308E4F0800690A6
:101EC0000308E004F07B017A01790A90000A124BC2
:101ED000A1E0FEA3E0FF12E809850883850982EEF0
:101EE000F0A3EFF0850883850982E0FEA3E0FFEF11
:101EF00064007003EE6490600E850883850982E0BB
:101F0000FEA3E0FF021FF79006CDE0FEA3E0FF90E6
:101F10000008124BA1EEF0A3EFF090000A124BA1C3
:101F2000E0FEA3E0FF9006CDEEF0A3EFF0900008F6
:101F3000124BA1E0FEA3E0FF90000A124BA1E0FCCF
:101F4000A3E0FDED6F7002EC6E603B900008124B59
:101F5000A1E0FEA3E0FF12ED42850883850982EE31
:101F6000F0A3EFF0850883850982E0FEA3E0FFEF90
:101F700064007003EE6490600D850883850982E03B
:101F8000FEA3E0FF807190000E124BA1E4F0A3E4E9
:101F9000F0900006124BA1E0FEA3E0FF90001012AB
:101FA0004BA1EE8FF0124803900015124BA1C08395
:101FB000C082E0FEA3E0FF900006124BA1E0FCA36C
:101FC000E0FDC3EF9DFFEE9CFED082D083EEF0A338
:101FD000EFF0900006124BA1E0FEA3E0FF90000C92
:101FE000124BA1EE8FF0124803021860850883851A
:0E1FF0000982E0FEA3E0FF900017124B7D2255
:10200000758F8078FFE4F6D8FD9000007F1D7E0676
:10201000EF7003EE60080EE4F0A3DFFCDEFA750853
:102020000875090090D6C57E00E4936065A3FF544F
:102030003F30E511EFFEE493A3FFEE547F30E63826
:10204000541FFE8009EF547F30E633541FFFEF60CA
:10205000010EE493FAA3E493F8E4A3E493A3FBC88A
:10206000C582C8CAC583CAEBF0A3C8C582C8CAC5A1
:1020700083CADFE7DEE580B1EE541FFE8004EF5433
:102080001FFF0EE493F8A3E493A3F608DFF9DEF74D
:10209000809775810902FADA90061F124A29E490A6
:1020A000067EF01246B964A6600302297A1276CE43
:1020B0009000011246D2124B2A23390423722023A6
:1020C000B224230344256E80263E8A26268C260DC4
:1020D0008D25F48E26908F211AA42157B021ACB201
:1020E000281EBF2232D6228DDC2737E026A5E22823
:1020F000EDE92950EA24EAF02809F327CFF4279FD5
:10210000F6253CF7254FF82833FA2447FC2412FD26
:102110002562FE2890FF0000297112F7C31276CEC7
:102120001277854F600302252B900624E06402603D
:102130000302246D1276CE12775112A3E712779C18
:10214000E490067E1276CD12777D7F03128E9B90EF
:10215000067DEFF0022C851276CE1277A59006242C
:10216000F01277961277DF12324E7003EE649070A1
:1021700021A31277B11276CC1276B8900625E0FC36
:10218000A3E0FD12775A12DD5812779CA3E0900667
:102190007EF0900622E064907002A3E0600B12785B
:1021A000E07D001276CE124E41022CE91276CE125C
:1021B00077A590062412324E7003EE649070701270
:1021C00076CE1277FB24FD601D1460282402600384
:1021D000022C1990062412784FEFF01276B812777D
:1021E0005A12F37080271276C11276B812775A12FB
:1021F000F24780191276C11276B81276CE1277960F
:1022000024FFFDE434FFFC12775A12AE8E12779C45
:10221000900624E0FF90067EF0900622E064907025
:1022200002A3E0600A7E007D001276CE124E4102CB
:102230002CE912F7C31276CE1277A5900624F0127D
:1022400077961277DFF0E490067E1232A07003EEEC
:1022500064907036A31277B11276CC12777D127625
:10226000B8900625E0FCA3E0FD12775A12DDE712D4
:10227000779CE490067EF0EF7003EE6490600B12A2
:1022800078E07D001276CE124E41022CE912F7C39F
:102290001276CE1277A59006241232A07003EE6457
:1022A00090705D1276CE1277FB24FD6019146027C2
:1022B00024027044900624E01277741276B81277E4
:1022C0005A12F3A9802D1276C112777D1276B812B8
:1022D000775A12F284801C1276C112777D1276B87A
:1022E0001276CE12779624FFFDE434FFFC12775A63
:1022F00012996C12779C8003022C19E490067EF0F0
:10230000022CE91276CE1277854F7027900624E0D2
:10231000600280347D0812775A1232E5B40017EE5D
:10232000B4901312775A12E8E212779CE490067E7A
:10233000F0800302252B022CE91276CE1277854F0E
:10234000702A900624E060051278E8FF227D0612CC
:10235000775A1232E5B40017EEB4901312775A127E
:10236000E94912779CE490067EF0800302252B0257
:102370002CE91232016408600302240A1277967075
:102380002B1277FB24FA600B2402701D12777D7FDD
:102390000480111232D520E4030228391276CE12BD
:1023A000777D7F06123303800602252B02252B0240
:1023B0002CE912320164107051127796704912772D
:1023C000FB24FA60202402703B1232D530E4030271
:1023D00028391276CE1278571276B81276CE127746
:1023E0007D7F04801A12323E30E4030228391276CF
:1023F000CE1278571276B81276CE12777D7F0612FB
:10240000330F800B02252B02252B7E677F102202C3
:102410002CE912327820E4030228391276CE1277A2
:10242000854F701D900624E064026002803F1276A2
:10243000CE12775112A89C12779CE490067EF08011
:102440000302252B022CE912327820E403022839FA
:102450001276CE1277FB1460251460551460662442
:10246000F660030224E51277A5640260061278E89C
:102470007F022290000212774512C5A2805D12767B
:10248000CE1277A5640760061278E87F07229000D5
:102490000A12485AAEF01277B4EFF09000091246D3
:1024A000D2FF3395E0FE1277B512773112C49C80CB
:1024B0002A1276CE1277A56408600280121277067F
:1024C00012C6A780161276CE1277A564086006128F
:1024D00078E87F082212770612CA9412779CE4905B
:1024E000067EF080028044022CE912782220E40962
:1024F00012323E20E4030228391276CE1277962457
:10250000FE60101460131460172403701EE4FF7E35
:1025100020800AE4FF7E408004E4FF7E80FD800589
:10252000E4FFFE7D01FC129B4F80057E6B7F002245
:1025300012F713BF030302288B0228851231D7201C
:10254000E403022839900666E054EFF00228851271
:1025500031D720E403022839900666E04410F002E7
:1025600028851231EC30E4030231CD0228391231D2
:10257000EC20E4030228391276CE1277A5641060AD
:10258000030229F11276CE74591247321276CE9098
:1025900000017403124744900666E090000212475F
:1025A000449006C4E09000031247449006C5E090B2
:1025B00000041247449006C6E090000512474412FA
:1025C000ECF41276CE90000612786990000874013F
:1025D00075F0001248B112E5BA1276CE90000A12D8
:1025E00078699006C71249B490000C12499012778E
:1025F000A502280212782220E40912326820E4039E
:10260000022839900666E04404F0022885127822F8
:1026100020E40912326820E403022839900666E0BB
:1026200054FBF002288512782220E409123290200F
:10263000E40302283912791E12AFFA022A0F12F7A8
:10264000C312782220E40912329020E403022839D0
:102650001276CE1277961277DFF0E4900624F0120D
:1026600076CE1277A5FF900624E0FEC39F500AEEB7
:102670006F6006E02408F080E61277A51277B212A8
:10268000777B900625E0FEA3E0FF12EA12022A0FF4
:1026900012782220E4091232B520E403022839120C
:1026A000FAF9022CEC1276CE1277A56408600302C8
:1026B00029F1127889E94A4B600612788912D80507
:1026C0007E007F0812A718900679124A297D081209
:1026D000EC4BE4900624F0900624E0FFC3940850ED
:1026E0002F127889900624E0FEF58212789EFDEE86
:1026F00090FF88936DFE1276CE12777DEF7C0029D5
:10270000F9EC3AFAEE124732900624E004F080C762
:102710001276CE1276B81276CE12777D1276B87B0C
:10272000FF7AFF797F12F4C190067E7408F07490EE
:102730001277F3FF7E90221276CE1277A56408609E
:10274000030229F112F7C3127889E94A4B70047E1B
:102750006FFF229006227469F0A374831276CD1263
:10276000777DC003C002C00112788912785FD00162
:10277000D002D0037E007F08124E1DEF701E7D1028
:102780007F0412FA397D107F0612FA391278891205
:10279000D805900679127878127902F0022CE912A5
:1027A000F7C3900666E020E4091232B520E4030284
:1027B00028391276CE1277961277DFF01277A512AB
:1027C000783CECF0A3ED12777C121817022BF590F1
:1027D0000666E020E4081232C520E402805B12762F
:1027E000CE1277A5900624F01277961277DFF0903C
:1027F0000624E012783CECF0A3EDF012956F900601
:1028000024E090067EF0022CEC900666E020E408BE
:102810001232C520E402802112F18C022BF5123213
:102820001620E40280131276CE1277A5FD12777D72
:1028300002540612321620E4057E697F8222127647
:10284000CE1277A5644060030229F1E92445F9E43A
:102850003AFA12BB999006241276CCE92445F9E4A1
:102860003AFAC003C002C0011276CE1278B6D00187
:10287000D002D0037E007F40124E1DEF700D9006F7
:1028800066E054FDF012FA58022CEC7E927F402252
:102890007F0612F85B7E0012779C20E4030231CDA4
:1028A0001276CE127796640260030231CD1277FB66
:1028B000647060030231CD12777D12BB99900624BB
:1028C0001276CC1277A56F60030229F11278E0121C
:1028D000777DC003C002C0011276CE12785FD001AE
:1028E000D002D00312469312790B022CEC12F7C3DC
:1028F0001276CE1277A512795A7E017F0A1233BB67
:10290000E4900625F0A3F0900625E0FEA3E0FFC3C7
:102910009410EE9400501F740A2FF58274013EF556
:1029200083E0F460057E657F0122900625E475F062
:102930000112480380D11276CEE92405F9E43AFC6D
:10294000AD017B107A007F207E8012E53E022BF5E0
:102950001276CE1277A5FF12795A7E007D00124EB4
:10296000411276CEAE02AF011233BB12790B022CAC
:10297000ECE490067EF07E6DFF221276CE1246B910
:1029800064A060030231D29000011246D2124B2A99
:102990002339042CF1103198122D25142A7D202A78
:1029A000BB242AF1262B1E282B512C2C2532230345
:1029B000442C92882BA5A2211AA42157B021ACB295
:1029C00029D6C030B7C22232D6228DDC2A13F22C8F
:1029D000ECFA000031CD12786FE94A4B602E127686
:1029E000CE1277A5FD12786F1246B9FFEDD39F4046
:1029F000057E677F002212786FE92401F9E43AFA34
:102A000012F62412786F12D80512787512FA28126D
:102A1000779C221276CE1277854F70421278E07D35
:102A2000001276CE12777D124E411276CE12777D4D
:102A30007F01128E9B90067EEFF0900624E0FED37D
:102A40009F401190067EEEF0FF7467900622F0A37F
:102A5000EFF0801812790B9006227490800AE490AF
:102A6000067EF0900622746BF0A3E4F090067EE000
:102A7000FD1276CE12777D12F62402FA281233B3B5
:102A8000F0FD1276CE12777D12F6241276CE1277F2
:102A9000A56408701D12779670131277FBFF24FE51
:102AA000600304700812777D123303800B1277F1F4
:102AB00080061278817408F0022CE9123229641021
:102AC0007026127796701C1277FBFF24FE600304B9
:102AD00070111278571276B81276CE12777D1233B3
:102AE0000F800B1277F180061278817410F0022C9F
:102AF000E91232296408701D12779670131277FB61
:102B000014700D12777D7F0112DE7612779C800B98
:102B10001277F180061278817408F0022CE91233E2
:102B2000B31276CD1277A56408701D1277967013D4
:102B30001277FB14700D12777D7F0112D8A21277E5
:102B40009C800B1277F180061278817408F0022CB9
:102B5000E91233C71276CD1277A56410703E127752
:102B60009670341277FB24FE6014240270291277C9
:102B70007D1276B81276CE1278577F0180111276C8
:102B8000CE12777D1276B81276CE1278577F021267
:102B9000D38112779C800B1277F1800612788174B2
:102BA00010F0022CE91233C7F07D0112775A12336C
:102BB0001B7003EE6490706A1276CE1277A51277BE
:102BC000741276B81276CE12777D1276B81276CE5F
:102BD0001277FBFD12775A12696C12779CE470032E
:102BE000EE649F703D1276CE1277FBFFC4540F1433
:102BF000600B047024E490067EF0022ED4E490066C
:102C00007EF0900623E09000051247447D01127784
:102C10007D12EB337E9F7F0122E490067EF07E6B77
:102C2000FF22022CE912F7C3E490067E1276CD1241
:102C300077A5900624F0900004E4124744E490063F
:102C40007EF07D0412775A12331B7003EE6490708D
:102C500021A31276C412777D1276B81276CE900038
:102C60000412496012775A12977612779CE4900604
:102C70007EF0900622E0FEA3EEB49F05E090067E73
:102C8000F090067EE0FD1276CE12777D12EB3302D5
:102C900031C412F7C31276CE1277854F7043900677
:102CA00024E06410600AE490067EF07E947F0222A5
:102CB0001276CE12777D1276B81276CE12777D120A
:102CC000DCC690067EEFF0FD1276CE12777D12EB19
:102CD0003390067EE0FF749F900622F0A3EFF08011
:102CE00008E490067EF01277F10231C47E907F00F6
:102CF000221233751276CD1277A5FD900624127735
:102D00007C12EF3712E79AEF6012900687E0B40169
:102D1000111233279006877402F0800612CD4B12F1
:102D2000779C0231C4123375F012E79AEF60769007
:102D30000687E024FE602114603514604924036096
:102D4000030230B41233279006877402F0EF700349
:102D5000EE649060030230B412C9A012779C900612
:102D6000877403F0EF7003EE649060030230B412D6
:102D7000F5C112779C9006877404F0EF7003EE643F
:102D80009060030230B41233337003EE649060033A
:102D90000230B41276CE1277A5FD7C0012777D1238
:102DA000F6E50230CDE490062BF09006271276CDA2
:102DB0001277A5900624F0FD7C0012777D12F8DFD3
:102DC000EF7003023123900315E0B4FF12A3E0B4C7
:102DD000FF0DE4900315F0A3F09003170230B1E467
:102DE000900637F0A3F012794E7003022F077A0392
:102DF00079191276B612796E1276B8123390247D54
:102E0000604B24F37060900319E0540F900629F092
:102E10001276A690031312338112792B6048127632
:102E20009C1233A9E490062BF0900629E0FF90064F
:102E30002BE004F06F60111277CE4E7003022ED497
:102E40001276A612336380E1900631801190031947
:102E5000E0900638F01276A612333F90062FE0FF7E
:102E6000A3E0CF1277D71276A612333F12788F12D3
:102E700076B890062AE0FB900628E0FD900635E043
:102E8000FF120200900637EFF0E0FFC41354031462
:102E9000600D14605614605324036003022DE6EFA6
:102EA0007003022DE61276A612335112792B7003AD
:102EB000022DE612769C1233A9E490062BF09006C0
:102EC00037E0540FFF90062BE004F06F601212778A
:102ED000CE4E70047E90FF221276A612336380DEFF
:102EE000900624E0900627F0022FC61233331277A3
:102EF000CE4E7003127833900637E020E703022F9E
:102F0000C6127833022FC6900638E0124B2A2F687B
:102F1000002F68012F68022F68032F68042F6805AF
:102F20002F68062FA6112F90132F68142F51202FD2
:102F300051212F51222F51232F5E302F5E312F5ED2
:102F4000322F5E332F5E342F5E352F5E3600002F1A
:102F50008190067CE004F0C394045002803712781C
:102F6000339006227493805AE490067CF090031705
:102F7000E07002A3E0704F127833900622749080C4
:102F800041E490067CF012783390062274908032EF
:102F9000E490067CF0900315E0FFA3E0900317CFC8
:102FA000F0A3EFF08020E490067CF01276A61233B6
:102FB0005190062D1277D14E700C12783390062264
:102FC0007490F0A3E4F0900317E0FCA3E0FDF4702C
:102FD00002ECF470030230771276A61233CF90061B
:102FE0002DE0F47003A3E0F470030230B4900634D3
:102FF000E0900624F0900636E0FF12D57DEF7003D6
:103000000230B4900636E0FFB4250F900317E0FDC0
:10301000A3E0900313CDF0A3EDF0EFB4240F9003E1
:1030200017E0FFA3E0900313CFF0A3EFF090063773
:10303000E0FF20E50F900317E0FDA3E0900315CD1E
:10304000F0A3EDF0EF20E63C9006241277B1EFF00C
:1030500012788F1276B8900318E0240AFD900317B7
:10306000E03400FC1233CF900624E0FD12788F127A
:10307000F76D12779C800D900637E020E5061279F7
:1030800035F0A3F0900637E030E51C1276A69003E9
:103090001512338190062D12792E600B900315EED8
:1030A000F0A3EFF01277D6900637E030E7061279FA
:1030B00035F0A3F00231C412F7C3127902F012E71F
:1030C0009AEF600E1276CE12777D12B55A12779C67
:1030D00080E212788F1276B812796E1276B87B0180
:1030E0007A06792C1276B81276CE12777D12E4C168
:1030F00090062AE0FF7E001276CE1278B612788F04
:10310000124693E490062BF0900627F090062AE0F2
:10311000900624F0FD7C001276CE12777D12F8DF47
:10312000EF70047E93FF2290062CE0242F601B1486
:10313000601824FC6014146011240470597F031279
:10314000F3E2EF6003022DDF804C12794E604712EC
:10315000788F1276B812796E1276B8123390247581
:10316000601A24E6600D0470E1900319E090062BCC
:10317000F080D790062CE0B4D7D080CE90062CE01B
:10318000B4D1057F011232F190062CE064D270BAFE
:10319000FF1232F180B4802C900696E0B4070374DD
:1031A00004F01276CE1277A5FD7C0012777D12F620
:1031B000B512FAED1279021276CD1277A5FD1277CB
:1031C0007D12F624900622E0FEA3E0FF227E6D7FB2
:1031D00000227E6E7F0022E490067EF07F0612F8C9
:1031E0005B7E00900622EEF0A3EFF022E490067ED4
:1031F000F07F0612F85B7E00900622EEF0A3EFF05F
:103200002212F7C3E490067EF090061F124A09903E
:1032100000041246D22212F7C37F0612F85B7E002A
:10322000900622EEF0A3EFF02212F7C3E490067EA0
:10323000F090061F124A099000041246D2227F061F
:1032400012F85B7E00900622EEF0A3EFF022F0E48D
:1032500090067EF07D017B017A06797F12ECA390C7
:103260000622EEF0A3EFF0227F0612F85B7E0090BC
:103270000622EEF0A3EFF02212F7C3E490067EF0F0
:103280007F0412F85B7E00900622EEF0A3EFF0229E
:103290007F0612F85B7E00900622EEF0A3EFF0228C
:1032A000F07D027B017A06797F12ECA3900622EE74
:1032B000F0A3EFF0227F0612F85B7E00900622EE6C
:1032C000F0A3EFF0227F0612F85B7E00900622EE5C
:1032D000F0A3EFF0227F0412F85B7E00900622EE4E
:1032E000F0A3EFF02212ECA3900622EEF0A3EFF091
:1032F000227B017A03791912A583900622EEF0A3AE
:10330000EFF02212E01C900622EEF0A3EFF0221262
:10331000D93E900622EEF0A3EFF02212ECA3900625
:1033200022EEF0A3EFF02212A247900622EEF0A3C5
:10333000EFF02212FA28900622EEF0A3EFF022908E
:103340000315E0FCA3E0FD7B017A06795D12DD58F0
:1033500022900315E0FCA3E0FD7B017A06795D1263
:10336000DD5822900317E0FCA3E0FD7B017A06798B
:103370005D12DD582212F7C39006227490F0A3E488
:1033800022E0FCA3E0FD7B017A06795D12DD582284
:103390007B017A067928EEFF7E0012EFC0900627A7
:1033A000E02FF0A3E04480F0227B017A06795D12E1
:1033B000DD582212F7C3E490067E227B107A007D4E
:1033C000207C8012EE672212F7C3E490067E227BF7
:1033D000017A06795D12DD582290FFEA124B7D12C8
:1033E0007A68127BF0900691E0FEA3E0FF90068FD2
:1033F000E0FCA3E0C39FEC9E4003024442127C1C0D
:10340000FFBEFF19BFFE1690069CE0FFA3E09006EA
:103410008FCFF0A3EFF0E490069EF0A3F0127C1C97
:10342000F47002EEF4700302410590068FE0FCA3F5
:10343000E0FD90069CECF0ED127ABD127A1E7B0145
:10344000900008127ADE127A1E127AD9AF05AE0405
:1034500012E2C190068FE48FF0124803E490069BBD
:10346000F0127C1C4E60030244351279ECE4127AAF
:1034700067A3A3F0127B11E4F0127B4DE4127B6A88
:10348000547F124B2A34D60137A702383B0339E167
:103490000440DB054105064389074165083B920965
:1034A0003BD90C412710417C113C12123F8713413C
:1034B000651441EA1542641837AE1942B81A34CB84
:1034C0001B3782213D0C23000033E5127A45127A26
:1034D0008D127B4CEFF0127A4524191279E3EFF04C
:1034E0001279EC1244C21279ECE0FF7E00127A45A8
:1034F000127AE6C003C002C0011279BC127AD2D09F
:1035000001D002D003124693127A8774FF127ABE5A
:10351000127A1E127A7FEFF09000121279BF7F01AB
:103520001279B112D8051279EC127AB07F0012D656
:1035300022127A877482F07B00127A45FF7D131283
:10354000E3C2127A68A3A3E02FF07F081245A71206
:103550007AAA7C3F7D009000101279BF12458D90B1
:1035600000101279BF12A3E77C6F7D1C900010122F
:1035700079BF12A3E7127B11E4F0127AFDE4F0A305
:103580007402127ABE127A1E127B74E0FD7C0090E7
:1035900000151279BF12DD58EF7003EE649070666B
:1035A000127A452402F0900319E064017044A312DA
:1035B00079EAEFF01279EC127AB0127A1E127B746B
:1035C000E0FD7C009000151279BF12DD58900319C0
:1035D000E07026A31279EAEFF07B017A03791B12DF
:1035E0007A1E127A6F12452F127A68A3A3E02FF089
:1035F0008014900319E0F4600D90031AE0FF127A32
:10360000452FF002357A127ABF12CFD91279ECEF3A
:10361000127ABE128C421279ECEFF01279EC12455C
:1036200065127AAA1279ECE0FF7E001279BC127A58
:10363000D2127ABF1246937C3F7D0090001012791F
:10364000BF12458D9000101279BF12A3E77C6F7DE9
:10365000049000101279BF12A3E7127A87741B122C
:103660007B45E07E00241AF9EE3403127A1B7C00BD
:103670007D009000141279BF12AE8E1279ECE0FF3B
:103680002426F582E43403F583E0FE127B11EEF08C
:103690007E0074272FF9EE3403127A1B1279EC1294
:1036A0007A75124538127A68A3A3E02FF01279ECEC
:1036B000E0241A127B1A127B0FEFF090001012799F
:1036C000BF12D805127A451245B0900010127AAA9E
:1036D000127A452401FFE433FE1279ECE0127AE617
:1036E000C003C002C0019000101279BF127AD2D07C
:1036F00001D002D0031246931279ECE0FF2432F598
:1037000082E43403F583E0FE127B11EEF074332F74
:10371000F582E43403F583E0127B4CEF127ABE129B
:103720007A1E9000101279BF127A1E90001612793C
:10373000BF127A1E90000F127A82EFF090001612DC
:103740004BA1E0FB127BA9FD7F0112B1621279B49B
:1037500012D8059000101279BF12D805127ABF1244
:103760007A1E127A6F124541127A68A3A3E02FF0F5
:103770009006A8E060030244429006967407F002A7
:103780004442127A452419127A93FF30E107127BE2
:103790004DE04480F0EF30E007127B4DE04401F053
:1037A000127A4504F08007127B4DE04480F0127AD3
:1037B000877402127BA8FB127A45FF7D2112E3C2B7
:1037C000127A68A3A3E02F127A4424191279E3EF46
:1037D000F01279EC1244C21279ECE0FF7E00127A0A
:1037E00045127AE6C003C002C0011279BC127AD237
:1037F000D001D002D00312797B12D8051279EC12D5
:1038000044D81279BC74041247321279ECE0FF7E7E
:10381000001279BC127B03127ABF1246931279BC54
:10382000127A1E127B6204127A7612455C127A6852
:10383000A3A3E02FF090000D023F7E127A45127A8A
:103840008D90069B127A4424191279E3EFF01279D5
:10385000EC1244D81279ECE0FF7E00127A45127A1D
:10386000E6C003C002C0011279BC127AD2D001D0E6
:1038700002D003124693127A77FFC374FF9FFE12A1
:103880007A87EEF07E0074192FF9EE3403FA12797C
:103890008B12D8051279ECE012451A1279ECE0048B
:1038A000FF1279BCEF1247321279BC74F6127C25F4
:1038B0001279ECE0FF7E00127A77127AC6C003C05C
:1038C00002C0011279BCE92402127B06D001D002A9
:1038D000D0031246931279D6EFF0804C127A77FF1C
:1038E000127A45C39F504D1279D6127A43FF24199C
:1038F000127A9314601114601D2402702B127B172E
:10390000E0FF90000B801C127A45241A127B1AE00B
:10391000FF90000C800D127A45241A127B1AE0FFEA
:1039200090000A124BA1EFF01279ECE0FF127A45F9
:103930002FF080A8127A87127BA6FB127A45FF7DB2
:103940002312E3C2127A68A3A3E02F1279BBE92401
:1039500001F9E43AFA127A1E9000101279BF124669
:10396000B9127A7612455C127A68A3A3E02FF0129E
:1039700079EC7402F0127AD9127A1E127A6F7D11E4
:10398000124586127A68A3A3E02F1279BB12D805DC
:10399000127A77FF127A45C39F503D1279D6127A78
:1039A000432419127A9364047022127A45FF7C0032
:1039B000241BF9EC3403127A1B127B17127A757DE3
:1039C00017124586127A68A3A3E02FF01279ECE073
:1039D000FF127A452FF080B8900696E04490023CA2
:1039E0000E127A45127A8D90069BF0127A877482B5
:1039F000F07B00127A45FF7D2412E3C2127A68A39D
:103A0000A31279D3EFF01279ECE0FF127B46EF12AC
:103A100079FC127A87EFF0127B74E0127BD13403C9
:103A2000FA7B017F0012C0431279ECEFF0127A7733
:103A3000127BD1127A19127A6F12452F127A6812FC
:103A40007B41E0FF127A452FF0127B4D7401F0129A
:103A50007A77FF127A45FEC39F4003023D0974192D
:103A60002E1279E3EFF01279ECE0FF127B46EFF0D3
:103A700012451A1279ECE0FF7E00127A45127AE6BE
:103A8000C003C002C0011279BC127B03D001D00276
:103A9000D0031246931279ECE0FF2401FDE433FCDD
:103AA0001279BC8D828C83E4124744127B4DE0FE78
:103AB000127A45FD2419F582E43403F583EEF07C97
:103AC0000074192D127A17EF04127A767D0F1245C1
:103AD00095127A68127B411279EAEFF01279ECE0E4
:103AE00004F01279ECE0FE127A452E127A44FE249C
:103AF00019127A93FD1279ECEDF01279ECE0703442
:103B00001279ECEFF0741A2E127B1AE0FF1279BCD6
:103B1000EF1247321279BC127A1E127B6204127ABB
:103B200086127B7A12B40D1279BC12D805127A452E
:103B300004F080561279BC12D8051279ECE0FF7EB1
:103B400000127A45FDFB7A002FFFEA3EFE741A2F21
:103B5000F58274033EF583E0FF74192DF582E43499
:103B600003F583EFF074192BF9EA127A19127B62CC
:103B700004127A86127B7A12B40D1279ECE004F00A
:103B80001279ECE0FF127A452FF0127A4504F00228
:103B90003A4F127A45127A8DFF90000C127A402427
:103BA00019127A9390069BF0127A87127BA6FB1269
:103BB0007A45FF7D2612E3C2127A68A3A3E02F1292
:103BC0007A67A3A3E0FF7491127A68F0A3EFF090F4
:103BD0000696E044A0F0024442127A877482127B77
:103BE0006A127A8DFB127A45FF7D0112E3C2127AC6
:103BF00068A3A31279D3127A43127BD1127A1912D5
:103C00007A6F7D12124595127A68A3A3E02FF00215
:103C100040C8127A877483F07B00127B117D1212E8
:103C20004467127AE6C003C002C0011279BC127A5E
:103C3000D2D001D002D0031246931279EC1279F25D
:103C400012799E12D8051279EC1244EE1279ECE04A
:103C5000FF7E00127A77127AC6C003C002C001123A
:103C600079BC127AD2D001D002D0031246931279D5
:103C7000BC1279EC127BB1127A1EAB05127A771264
:103C80004570127A68A3A3E02F1279BB12D80512EF
:103C900079D6EFF01279ECE0FF127B46EFF07E0070
:103CA000127A45127AC6C003C002C001127A771296
:103CB0007BFFD001D002D003124693127A77127B99
:103CC000D1127A19127A6F7D0A1245BC127A68A352
:103CD000A3E02FF09000078024127A77FF127A4534
:103CE000C39F50251279D6127A43FF2419127A9372
:103CF0007008127B17E090069BF0900006124BA113
:103D0000E0FF127A452FF080D00240C8127A877403
:103D100083F07B00127B117D13124467127AE6C098
:103D200003C002C0011279BC127AD2D001D002D0F5
:103D3000031246931279EC1279F212799E12D80589
:103D40001279EC1244EE1279ECE0FF7E00127A77E1
:103D5000127AC6C003C002C0011279BC127AD2D056
:103D600001D002D0031246931279BC1279EC127B77
:103D7000B1127A1EAB05127A77124570127A68A3D7
:103D8000A3E02F1279BB12D805127A27127A8DFF81
:103D9000900008127A40127A8DFF90000B127A4040
:103DA000127A8D127A9D9000131279BFE94A4B6006
:103DB0005A9000131279BF12454A900010127AAA45
:103DC00090000B124BA1E0FF9000101279BFEF1290
:103DD00047329000131279BF127BC4FF900010127B
:103DE00079BF127C249000131279BF127B30C0037C
:103DF000C002C0019000101279BFE92402127B06B4
:103E0000D001D002D0031246938009127BCA9000E1
:103E100010127AAA127A27127B73EFF0023ED212A6
:103E20007A77FF127A45C39F4003023EDF1279D6AC
:103E3000127A43FF2419127A936003023ED2127B56
:103E400017E0FE90000A124BA1EEF0741B2FF582D2
:103E5000E43403F583127A9C9000131279BFE94A87
:103E60004B606F9000131279BF12454A90000D12FB
:103E70007AAA127B53FF1279BCEF124732900013DB
:103E80001279BF127BC4FF1279BC127C24900013FC
:103E90001279BF127B30C003C002C0011279BCE9A5
:103EA0002402127B06D001D002D00312469312796D
:103EB000BC127A1E9000161279BF127BC424021223
:103EC0007A76124538127A68A3A3E02F1279BB12D2
:103ED000D8051279ECE0FF127A452FF0023E1F124E
:103EE0007B74127B0FEF127B451279EAEFF01279A7
:103EF000EC1245041279ECE0FF7E00127A45127A4A
:103F0000C6C003C002C0011279BC127AD2D001D05F
:103F100002D00312797B12D8051279EC12450412F3
:103F200079ECE0FF7E001279BC127AD2127ABF12CD
:103F300046931279BC1279ECE0FF127BB3127ABF80
:103F4000127A1E9000101279BF127A1E900016127B
:103F500079BF127A1E127A87EFF07BF67F017D7FA0
:103F600012B1621279ECEF127ABE127A1E127A6FD7
:103F7000124541127A68A3A3E02FF0900010127945
:103F8000BF12D8050240C8127A877483F07B0012F2
:103F90007A45FF7D1312E3C2127A68A3A3E02FF0E3
:103FA000127A27127A8D127B73EF1279D5EFF01205
:103FB00079ECE0FF1245A7127AAA1279ECE0FF7EB5
:103FC00000127A45127AC6C003C002C001900010E8
:103FD0001279BF127AD2D001D002D00312469312C6
:103FE00079C5EFF01279ECE0FD6025127A45127B7D
:103FF000D1127A19AB05127A777D061245BC127A76
:1040000068A3A3E02FF01279ECE0FF127A452FF0BD
:104010001279D6EFF01279EC12457990000D127AF0
:10402000AA1279ECE0FF7E00127A45127AC6C0032C
:10403000C002C0011279BC127AD2D001D002D003E2
:1040400012797B12D8051279EC12457990000D1285
:104050007AAA1279ECE0FF7E001279BC127AD212B1
:104060007ABF1246931279BC1279ECE0FF127BB34F
:10407000127ABF127A1E9000101279BF127A1E9027
:1040800000161279BF127A1E127A87EFF090001292
:10409000124BA1E0FB900011124BA1E0FD7F011239
:1040A000B1621279ECEF127ABE127A1E127A6FFFA9
:1040B0007E007D0B12F1CB127A68A3A3E02FF09063
:1040C00000101279BF12D805127A68A3A3E0FF741A
:1040D00091127A68F0A3EFF0024442127A77FFB4AB
:1040E000010D900319E0FD90069EE4F0A3EDF0EFC2
:1040F000640260030233E5900319E0FFA3E0900639
:104100009ECF024251E490068FF0A3F0A3F0A3F0FB
:10411000127A8774FFF07D01127B2912CF00127A88
:1041200068127BF0024442127A45127A8D127B4C5F
:10413000EFF0127B4DE0146011146018240260034C
:104140000233E5127A8774DF800F127A8774FFF0EA
:104150007DE08008127A8774FFF07D01127B2912BE
:10416000CF000233E5127BBD127A1E127B74E0147D
:10417000127A86127B2212B40D0233E512459C128C
:104180007AAA1279BCE94A4B70030233E57C3F7D81
:10419000001279BC12A3E77C277D001279BC12A320
:1041A000E77C6F7D1A1279BC12A3E7C3EE949F508F
:1041B00003024380900319E014127B10EFF0127A8F
:1041C000877405127ABE127A1E127B46E0FD7C00CF
:1041D0009000111279BF12AE8EE4B5070AEEB490CA
:1041E00006127BBD12F87D024380127A45127A8D49
:1041F000127A9D127A77FF127A45C39F40030233E9
:10420000E51279D6EFF01279ECE024FFFFE434FFF9
:10421000FE9000131279BF127B39C003C002C001A7
:10422000127A45127BFFD001D002D003124E1DEF4F
:1042300070261279ECE0FF7E00127A452FFFE43EF3
:10424000FE74182FF58274033EF583E0FF90069EFE
:10425000E4F0A3EFF00233E51279ECE0FF127A45C7
:104260002FF0808F90031A127A9C90031C124565E0
:10427000127AAA90031CE0FF7E009000131279BF0F
:10428000127B3990031BE07C0029F9EC3AFAC00359
:10429000C002C0011279BC127AD2D001D002D00380
:1042A0001246931279BC127A1E90031C127A851260
:1042B0007B2212B40D0243809003191279EAEFF0C9
:1042C0001279ECE0FF7E0012A71890000D127AAA76
:1042D0001279ECE0FF70030243807E001279BC1279
:1042E0007AD2127BBD124693127A8774FFF07A035A
:1042F000791A12798B12D80512459C127AAA7C3F42
:104300007D001279BC12A3E77C277D001279BC12D4
:10431000A3E77C6F7D1D1279BC12A3E7D3EF940055
:10432000EE949F405B127B117402F0127AFDE4F070
:10433000A37406F07B017A03791E127A1E127B7435
:10434000E0FD7C009000121279BF12DD58EF70037F
:10435000EE6490702B781A7C037D017B017A0379DF
:104360001E7E007F04124E1DEF6008127A4524065F
:10437000F080B8900322E0FCA3E0FFAE0412E1B7A6
:104380001279BC12D8050233E5127A45127A8D9063
:10439000069B1279D5EFF09006977480F01279C5DC
:1043A000EFF01279ECE0FF7E0012A7189006981249
:1043B0004A291279ECE02401FFE433FE127A451217
:1043C0007AC6C003C002C001127BF9127AD2D001B2
:1043D000D002D003124693127A877480127B6A123D
:1043E0007BD1127A19127A7F127BF77F0012C043B9
:1043F0001279EC127BF712D8051279ECE01245B075
:10440000900698124A291279ECE01247321279ECA0
:10441000E0FF7E00127A45127AC6C003C002C001D6
:10442000127BF9127B03D001D002D0031246931203
:10443000F9C50233E590069E74FFF5F012480302B9
:1044400033E5127A68A3A3E0FD600CFF12F89F1217
:104450007A68EEF0A3EFF0127A68E0FCA3E0FFAE1A
:1044600004900016024B7DE0FF12E3C285088385AD
:104470000982A3A3E02FF0900003124BA1E0FF04F8
:10448000F074192FF582E43403F583E0FF90000601
:10449000124BA1EFF0900006124BA1E02401FDE4C5
:1044A00033AF05FE12A71890000D124BA1124A2936
:1044B000900006124BA1E0FF7E00900003124BA17A
:1044C000E022E02401FDE433AF05FE12A7189000BE
:1044D0000D124BA1124A2922E02401FDE433AF055D
:1044E000FE12A71890000D124BA1124A2922E024B7
:1044F00001FDE433AF05FE12A71890000D124BA189
:10450000124A2922E02401FDE433AF05FE12A71868
:1045100090000D124BA1124A29222402FDE433AF70
:1045200005FE12A71890000D124BA1124A2922FF76
:104530007E007D0512F1CB22FF7E007D0612F1CBBD
:1045400022FF7E007D0B12F1CB229000041246D296
:104550002402FDE433AF05FE12A71822FF7E007D82
:104560000D12F1CB22E0FF7E0012A71890000D2261
:10457000FF7E007D0512F1CB22E02401FDE433AF84
:1045800005FE12A71822FF7E0012F1CB2212A3E72C
:104590007C277D0022FF7E0012F1CB227F087E0067
:1045A00012A71890000D227E0012A718900010226A
:1045B0002401FDE433AF05FE12A71822FF7E00128E
:1045C000F1CB22E709F608DFFA8046E709F208DFB7
:1045D000FA803E88828C83E709F0A3DFFA8032E319
:1045E00009F608DFFA8078E309F208DFFA807088BC
:1045F000828C83E309F0A3DFFA806489828A83E0F6
:10460000A3F608DFFA805889828A83E0A3F208DFE4
:10461000FA804C80D280FA80C680D4806980F28093
:1046200033801080A680EA809A80A880DA80E280B9
:10463000CA803389828A83ECFAE493A3C8C582C80E
:10464000CCC583CCF0A3C8C582C8CCC583CCDFE978
:10465000DEE7800D89828A83E493A3F608DFF9EC14
:10466000FAA9F0EDFB2289828A83ECFAE0A3C8C59F
:1046700082C8CCC583CCF0A3C8C582C8CCC583CCC6
:10468000DFEADEE880DB89828A83E493A3F208DF35
:10469000F980CC88F0EF60010E4E60C388F0ED2405
:1046A00002B4040050B9F582EB2402B4040050AF08
:1046B000232345822390461373BB010689828A8394
:1046C000E0225002E722BBFE02E32289828A83E4D1
:1046D0009322BB010CE58229F582E5833AF583E05C
:1046E000225006E92582F8E622BBFE06E92582F87B
:1046F000E222E58229F582E5833AF583E49322BB41
:10470000010FF8E58229F582E5833AF583E028F088
:10471000225009C58229F8E58226F622BBFE09C58A
:104720008229F8E22582F222F8EA2583F583E993CB
:104730002822BB010689828A83F0225002F722BB1D
:10474000FE01F322F8BB010DE58229F582E5833AEB
:10475000F583E8F0225006E92582C8F622BBFE0563
:10476000E92582C8F222EF8DF0A4A8F0CF8CF0A446
:1047700028CE8DF0A42EFE22BC000BBE0029EF8DAA
:10478000F084FFADF022E4CCF875F008EF2FFFEED7
:1047900033FEEC33FCEE9DEC984005FCEE9DFE0FE5
:1047A000D5F0E9E4CEFD22EDF8F5F0EE8420D21C40
:1047B000FEADF075F008EF2FFFED33FD4007985088
:1047C00006D5F0F222C398FD0FD5F0EA22C2D5EC4F
:1047D00030E709B2D5E4C39DFDE49CFCEE30E7155B
:1047E000B2D5E4C39FFFE49EFE124778C3E49DFD6B
:1047F000E49CFC800312477830D507C3E49FFFE4B4
:104800009EFE22C5F0F8A3E028F0C5F0F8E5821579
:104810008270021583E038F022A3F8E0C5F025F09D
:10482000F0E582158270021583E0C838F0E822BBFB
:10483000010A89828A83E0F5F0A3E022500687F01E
:1048400009E71922BBFE07E3F5F009E31922898283
:104850008A83E493F5F074019322BB0110E5822969
:10486000F582E5833AF583E0F5F0A3E0225009E90B
:104870002582F886F008E622BBFE0AE92582F8E2E6
:10488000F5F008E222E5832AF583E993F5F0A3E940
:104890009322BB010A89828A83F0E5F0A3F02250BB
:1048A00006F709A7F01922BBFE06F3E5F009F31994
:1048B00022F8BB0111E58229F582E5833AF583E808
:1048C000F0E5F0A3F0225009E92582C8F608A6F029
:1048D00022BBFE09E92582C8F2E5F008F222EF2B9F
:1048E000FFEE3AFEED39FDEC38FC22C3EF9BFFEE04
:1048F0009AFEED99FDEC98FC22EF6BFFEE6AFEED5F
:1049000069FDEC68FC22CFF4CFCEF4CECDF4CDCC53
:10491000F4CC22EB9FF5F0EA9E42F0E99D42F0ECE8
:104920006480C864809845F022EB9FF5F0EA9E42CF
:10493000F0E99D42F0E89C45F022E8600FECC313DB
:10494000FCED13FDEE13FEEF13FFD8F122E8600F2C
:10495000EFC333FFEE33FEED33FDEC33FCD8F12231
:10496000BB010DE58229F582E5833AF5830249B45E
:104970005007E92582F8024E6DBBFE07E92582F853
:10498000024E79E58229F582E5833AF583024E8568
:10499000BB010DE58229F582E5833AF5830249CC16
:1049A0005007E92582F8024E95BBFE07E92582F8FB
:1049B000024EA122E0FCA3E0FDA3E0FEA3E0FF2263
:1049C000E0F8A3E0F9A3E0FAA3E0FB22ECF0A3ED0A
:1049D000F0A3EEF0A3EFF022A8828583F0D083D07D
:1049E000821249EF1249EF1249EF1249EFE473E4E2
:1049F00093A3C583C5F0C583C8C582C8F0A3C5838A
:104A0000C5F0C583C8C582C822E0FBA3E0FAA3E0D5
:104A1000F922F8E0FBA3A3E0F925F0F0E582158286
:104A200070021583E0FA38F022EBF0A3EAF0A3E974
:104A3000F022BB010789828A83024A095005E9F8FE
:104A4000024EADBBFE05E9F8024EBF89828A8302A1
:104A50004ED1BB011A89828A83D0F0D0E0F8D0E031
:104A6000F9D0E0FAD0E0FBE8C0E0C0F0024A2950FB
:104A700016E9F8D083D082D0E0F9D0E0FAD0E0FB9C
:104A8000C082C083024EB6BBFE16E9F8D083D08246
:104A9000D0E0F9D0E0FAD0E0FBC082C083024EC87B
:104AA00022BB010DE58229F582E5833AF583024AAE
:104AB000095007E92582F8024EADBBFE07E92582C1
:104AC000F8024EBFE58229F582E5833AF583024E6E
:104AD000D1BB0120E58229F582E5833AF583D0F048
:104AE000D0E0F8D0E0F9D0E0FAD0E0FBE8C0E0C0D8
:104AF000F0024A295018E92582F8D083D082D0E00C
:104B0000F9D0E0FAD0E0FBC082C083024EB6BBFE13
:104B100018E92582F8D083D082D0E0F9D0E0FAD02D
:104B2000E0FBC082C083024EC822D083D082F8E46A
:104B3000937012740193700DA3A393F8740193F50D
:104B4000828883E4737402936860EFA3A3A380DF79
:104B5000D083D082F8E4937012740193700DA3A3F4
:104B600093F8740193F5828883E473740293B5F02B
:104B7000067403936860E9A3A3A3A380D8E509257D
:104B800082F582E5083583F583B50804858209221C
:104B900010AF06858209F50822858209F508D2AF93
:104BA00022E5092582F582E5083583F58322E709A8
:104BB000F60870FA8046E709F20870FA803E8882AB
:104BC0008C83E709F0A370FA807EE309F60870FA97
:104BD0008076E309F20870FA806E88828C83E3099C
:104BE000F0A370FA806289828A83E0A3F60870FAE3
:104BF000805689828A83E0A3F20870FA804A80D2C4
:104C000080FA80C680D4806580F28031801080A6D2
:104C100080EA809A80A880DA80E280CA8031898226
:104C20008A83ECFAE493A3C8C582C8CCC583CCF0D0
:104C3000A3C8C582C8CCC583CC70E9800D89828A9F
:104C400083E493A3F60870F9ECFAA9F0EDFB22894E
:104C5000828A83ECFAE0A3C8C582C8CCC583CCF0B5
:104C6000A3C8C582C8CCC583CC70EA80DD89828A9E
:104C700083E493A3F20870F980CE88F0ED2402B4A7
:104C8000040050C4F582EB2402B4040050BA23237C
:104C9000458223904BFE73E3F5F009E208B5F06B13
:104CA000DFF58067E3F5F009E608B5F05EDFF58033
:104CB0005A87F009E608B5F052DFF6804E87F00912
:104CC000E208B5F046DFF6804288828C8387F009DF
:104CD000E0A3B5F036DFF6803288828C8387F00956
:104CE000E493A3B5F025DFF5802188828C83E3F57A
:104CF000F009E0A3B5F014DFF5801088828C83E31F
:104D0000F5F009E493A3B5F002DFF4024DC6808705
:104D100080E9809080D4803E8015806E807E809D6A
:104D200080B7808D80A380518074803C024DD289F1
:104D3000828A83ECFAE493F5F0A3C8C582C8CCC597
:104D400083CCE493A3C8C582C8CCC583CCB5F07628
:104D5000DFE3DEE1807089828A83E493F5F0A3E2E9
:104D600008B5F062DFF4805E89828A83E0F5F0A303
:104D7000E608B5F051DFF5804D89828A83E0F5F0D1
:104D8000A3E208B5F040DFF5803C89828A83E49392
:104D9000F5F0A3E608B5F02EDFF4802A80028057F4
:104DA00089828A83ECFAE493F5F0A3C8C582C8CC63
:104DB000C583CCE0A3C8C582C8CCC583CCB5F006FA
:104DC000DFE4DEE280007FFFB5F0020F2240027FC9
:104DD000012289828A83ECFAE0F5F0A3C8C582C873
:104DE000CCC583CCE0A3C8C582C8CCC583CCB5F004
:104DF000D5DFE5DEE380CF89828A83ECFAE0F5F047
:104E0000A3C8C582C8CCC583CCE493A3C8C582C857
:104E1000CCC583CCB5F0AFDFE4DEE280A988F0EF4B
:104E200060010E4E60ABED2402B404005098F58290
:104E3000EB2402B40400508E2323458223904D0EB0
:104E400073EF4E6012EF60010EEDBB010B89828A99
:104E500083F0A3DFFCDEFA2289F05007F709DFFCBC
:104E6000A9F022BBFEFCF309DFFCA9F022E6FC0856
:104E7000E6FD08E6FE08E6FF22E2FC08E2FD08E2A5
:104E8000FE08E2FF22E493FC740193FD740293FE9A
:104E9000740393FF22ECF608EDF608EEF608EFF641
:104EA00022ECF208EDF208EEF208EFF222E6FB083F
:104EB000E6FA08E6F922EBF608EAF608E9F622E255
:104EC000FB08E2FA08E2F922EBF208EAF208E9F25A
:104ED00022E493FB740193FA740293F92290FFDEAB
:104EE000124B7D129D667491F0A3E4F0129D66A3AF
:104EF000A3F0A3F0129E1FE4F0A3F0FBFAF99000D8
:104F000008129E0F129ED2E4F090001F129E0C1207
:104F10009E1890000B129E0F129D9B7410129E17EC
:104F2000129D497C007D06129D7112DD58129D5222
:104F3000129DD56022129D52128785900008129E04
:104F40000F900008129D55E94A4B700B129D9B1261
:104F50009E177F090251B2129D52129E36540314BD
:104F600060050470258003129D529000021246D203
:104F7000FF12482FC39FFFE5F09400CF2406CF34E3
:104F800000FE129DC1EEF0A3EFF07C3F7D007B019F
:104F9000900017129D8112A3E77C7F7DA07B01907A
:104FA0000017129D8112A3E7129D52129E364404EF
:104FB00070030250AB129D52129DD5703C7C6F7DE8
:104FC000E07B01900017129D8112A3E71253FE901F
:104FD000001F129E0F90001F129D55E94A4B700250
:104FE0008039129D9B7410F0900021129D55129DE6
:104FF00049129D7812DD588050900008129D55E9A5
:105000004A4B70030253DC1253FE90001F129E0F96
:1050100090001F129D55E94A4B700C129D667493C7
:10502000F0A3E4F00253DC90001F129D55129D493D
:1050300090000E129D55129E92C4540F129D93EF34
:10504000F07D04129E6C126CCE129D52129E9254F0
:105050000F24FB602E24F86017240C7045129D71FC
:10506000129D49900022129D55129D497B02802479
:10507000129D71129D49900022129D55129D497BEF
:10508000008011129D71129D49900022129D5512AF
:105090009D497B067C007D1090000C129E4AFF12F9
:1050A000933090001F129D5512D805129D9B7416C7
:1050B000129E17129D497C007D06129D7112DD58CB
:1050C000129D5290000F1246D2FF7E00129DC1EE3B
:1050D0008FF0124803129E3654031460030251B835
:1050E000129D9B7404F07B01900010129D81129D13
:1050F000497C007D16129D7112DD58129ED27404F7
:10510000129D9A7410F090000D129D55129D497CCD
:10511000007D0A129D7112DDE7129D9B740AF090CA
:10512000000D129D5512482F24FEFDE5F034FFFCC2
:10513000129D7112CC6E900012124BA11249CC90AC
:10514000000E124BA11249B4900012124BA1124949
:10515000C0C31249296061129D9B7404F07B0190C9
:105160000014129D81129D497C007D06129D7112D2
:10517000DDE7129D9B7404F07B01900010129D816D
:10518000129D497C007D0A129D7112DDE7129DC1BE
:10519000A3E02406FF7E007490AD07129D66F0A385
:1051A000EDF0749C129D66F0A3EF129D9A129E176B
:1051B0007F0112D6220253DC129DC1C083C082E05F
:1051C000FEA3E0FF129ED2E0FDC3EF9DFFEE940030
:1051D000D082D083F0A3129DBFC083C082E0FEA323
:1051E000E0FF129D5290000F1246D2FDC3EF9DFFCB
:1051F000EE9400D082D083F0A3EFF07E007F1012F7
:10520000A71890000B129E0F129D52129EB2129E72
:10521000187E007F101246937C6F7D707B0190009A
:1052200017129D8112A3E7129D66A3A3E4F0A3F0D9
:10523000129DC1E0FEA3129D64A3A3E0FCA3E0FDC8
:10524000C39FEC9E504B129D9B129E15129D499040
:10525000001B124BA1E02416FFE433CF2DFDEF3CE1
:10526000FC129D7112DD58129D9B129E15129D49D4
:10527000129E86E0FCA3E0FD7B0190001C129D8144
:1052800012DDE7129D66A3A3E475F0801248038047
:105290009F129D9B129E17FF12D622129D52129DA5
:1052A000D57041129D52129E6C12F87D129DC11252
:1052B0009E25900019129D7B1290EE129D66EEF0D5
:1052C000A3EFF0129D947482F0129D947401F07B10
:1052D000FF7AFA79BA12AD18900002124B7D12FAD9
:1052E000280253CE900008129D55E94A4B700302E4
:1052F00053D6129D52129E36FF131313541F24FDD2
:105300006006046003025393129E18129D49129D79
:1053100094E4F07D0390000F129D55129E6C126C68
:10532000CEEF70030253D6129E18129D4990000EC4
:10533000129D55E9240AF9E43AFAC003C002C001FB
:1053400090000E129D55129E36131313541FFFD05A
:1053500001D002D00312B922EF607B7C3F129D6F17
:1053600012A3E77C27129D6F12A3E77C6F7D0612C4
:105370009D7112A3E7129D947405F090000C129D8C
:105380003C90000C129D55129E36FD7C00129D71C2
:1053900012996C129D52129E6C12F87D129D9B7494
:1053A00002F07B01900008129D81129D49129D78A8
:1053B00012DD58129DC1129E257C007D027B01905A
:1053C0000019129D8112F08BBF010B1233D9129D6F
:1053D00066EEF0A3EFF0129D5212D805900008126D
:1053E0009D55E94A4B6009900008129D5512D80559
:1053F000129D66E0FEA3E0FF900022024B7D7E003E
:105400007F1012A71822127851EDF01276B890FF93
:10541000DD124B7D1276FF7490F0A3E41276FEA3AA
:10542000A3F0900026124BA1E0FF1276FFA3A3E0A9
:10543000C39F400302585390002312776E1276FFE9
:10544000127896FF1279751276FD12789612782CE2
:10545000EFF0127975E0124B2A58430054EA0155D7
:105460002202553A0355520555750655980955CFF0
:105470000A58430B56050C563B0E56751056A6118E
:1054800056F112573C1357872057872157872257C9
:105490008723578724578725578726578727578776
:1054A0002857872957872A57872B57872C57872DA7
:1054B00057872E57872F578730578731578732574F
:1054C00087335787345787355787365787375787F6
:1054D0003857873957873A57873B57873C57873D17
:1054E00057873E57873F000057E11278451276EC08
:1054F00012A3E77C2F7DE27B019000051276EC126F
:10550000A3E71276F4127801500302585B12586137
:10551000E0FEA3E0FF7003EE6490700302584302C4
:10552000585B7B0190000D1276EC7F0112F7EA12B6
:1055300076E77F0112DE760258437B0190000D1260
:1055400076EC7F0112F7EA1276E77F0112D8A20209
:1055500058437B0190000D1276EC12590212776EBF
:105560001276FFA3A31277C5C003C002C0017B015E
:1055700090001780447B0190000D1276EC125918B0
:1055800012776E1276FFA3A31277C5C003C002C0C4
:10559000017B0190001780587B0190000D1276EC82
:1055A00012590212776E1276FFA3A31277C5C003B9
:1055B000C002C0017B0190000F1276EC12785FD020
:1055C00001D002D0031276D47E017F7802566F7B21
:1055D0000190000D1276EC12591812776E1276FFB8
:1055E000A3A31277C5C003C002C0017B0190000FC6
:1055F0001276EC12785FD001D002D0031276D47EFE
:10560000017F8E806A7B0190000D1276EC7F041280
:10561000F7EA90002312776E1276FFA3A31277C5E4
:10562000C003C002C0011276E712785FD001D00239
:10563000D0031276D47E017FBA80347B0190000DB6
:105640001276EC7F0612F7EA90002312776E12763C
:10565000FFA3A31277C5C003C002C0011276E712F0
:10566000785FD001D002D0031276D47E017FE6129B
:1056700018170258431278451276EC12590B12761D
:10568000EC12A3E77D071258DF127801500302588D
:105690005B125861E0FEA3E0FF7003EE64907003BC
:1056A00002584302585B1278451276EC12590B12DD
:1056B00076EC12A3E77D781258DF127801500302CE
:1056C000585B1277ABEFF090002512776E1277BF20
:1056D0001276B81278F01276EC12DDE71276F4E06A
:1056E000FEA3E0FF7003EE6490700302584302587B
:1056F0005B1258BB12A3E77D381278FA1276EC12CF
:10570000A3E71276F4127801500302585B1277ABCC
:10571000EFF090002512776E1277BF1276B81278EC
:10572000F01276EC12DDE71276F4E0FEA3E0FF70F3
:1057300003EE6490700302584302585B1258BB1288
:10574000A3E77DE01278FA1276EC12A3E71276F462
:10575000127801500302585B1277ABEFF0900025EE
:1057600012776E1277BF1276B81278F01276EC12BA
:10577000DDE71276F4E0FEA3E0FF7003EE649070C4
:105780000302584302585B1278451276EC125921F5
:105790001276EC12A3E77C6F7DE17B01900005128D
:1057A00076EC12A3E71276F4127801500302585BEC
:1057B00012782D12784FEFF090002412776E90003F
:1057C000031277C21276B81278A41276EC12996C92
:1057D0001276F4E0FEA3E0FF7003EE649060648054
:1057E0007A127975E0D3943F40591278451276ECDD
:1057F0001259211276EC12A3E77C6F7DE87B0190B1
:1058000000051276EC12A3E71276F412780150022A
:10581000804912782D12784FEFF090002412776EA5
:105820009000031277C21276B81278A41276EC12A6
:10583000996C1276F4E0FEA3E0FF7003EE649060D2
:1058400002801812782DE0FF1276FFA3A3E02FF05C
:105850000254221276FFE0FEA3E0FF900027024BE5
:105860007D900003124BA1E0FF7E0090FFFE124BE3
:105870007DEEF0A3EFF0900025124BA1124A0990A3
:105880000004124BA1E07E0029F9EE3AFA90FFFDE8
:10589000124B7D124A297C007D007B0190000A1288
:1058A0004BA1A982AA8312DDE7850883850982EED0
:1058B000F0A3EFF0850883850982227C3F7D007B81
:1058C00001900005124BA1A982AA8312A3E77C7F55
:1058D0007DA07B01900005124BA1A982AA83227CA6
:1058E0006F7B01900005124BA1A982AA8312A3E746
:1058F000850883850982EEF0A3EFF085088385098A
:1059000082227F0112F7EA9000232212A3E77C7F14
:105910007D207B01900005227F0212F7EA90002390
:105920002212A3E77C7F7DA07B01900005225354C7
:105930004B20004D7574617369200003814444005D
:1059400043656B004D656E676972696D0053656EE6
:1059500064696E670063646C6D00245245472400DF
:105960002A313231230063646C7500044E6F6D6F11
:105970007200044E756D6265720063647800446164
:1059800074612079616E6720416E6461206D61737E
:10599000756B616E206164616C61683A0D0A4E61DD
:1059A0006D61204C656E676B61703A25730D0A4A14
:1059B000656E6973204B656C616D696E3A25730D78
:1059C0000A54656D706174204C616869723A257380
:1059D0000D0A54676C2E204C616869723A25730D6C
:1059E0000A4167616D613A25730D0A486F62693A31
:1059F00025730D0A4170616B616820646174612DCB
:105A00006461746120746572736562757420626587
:105A10006E61723F00446174612079616E6720415C
:105A20006E6461206D6173756B616E206164616C81
:105A300061683A0D0A4E616D61204C656E676B615D
:105A4000703A25730D0A4A656E6973204B656C6167
:105A50006D696E3A25730D0A54656D706174204C42
:105A6000616869723A25730D0A54676C2E204C6187
:105A70006869723A25730D0A4167616D613A257351
:105A80000D0A4170616B616820646174612D64610D
:105A900074612074657273656275742062656E61ED
:105AA000723F00596F757220646174612073756D67
:105AB0006D6172696573206172653A0D0A46756C95
:105AC0006C204E616D653A25730D0A5365783A2551
:105AD000730D0A506C616365206F66206269727491
:105AE000683A25730D0A44617465206F6620426927
:105AF0007274683A25730D0A52656C6967696F6E36
:105B00003A25730D0A486F6262793A25730D0A616E
:105B1000726520746865206461746120636F7272BD
:105B20006563743F00596F757220646174612073FE
:105B3000756D6D6172696573206172653A0D0A4613
:105B4000756C6C204E616D653A25730D0A5365784E
